{
  "_format": "hh-sol-artifact-1",
  "contractName": "ClenRewards",
  "sourceName": "contracts/ClenRewards.sol",
  "abi": [
    {
      "inputs": [],
      "stateMutability": "nonpayable",
      "type": "constructor"
    },
    {
      "anonymous": false,
      "inputs": [
        {
          "indexed": true,
          "internalType": "address",
          "name": "owner",
          "type": "address"
        },
        {
          "indexed": true,
          "internalType": "address",
          "name": "spender",
          "type": "address"
        },
        {
          "indexed": false,
          "internalType": "uint256",
          "name": "value",
          "type": "uint256"
        }
      ],
      "name": "Approval",
      "type": "event"
    },
    {
      "anonymous": false,
      "inputs": [
        {
          "indexed": true,
          "internalType": "address",
          "name": "user",
          "type": "address"
        },
        {
          "indexed": false,
          "internalType": "uint256",
          "name": "spendAmount",
          "type": "uint256"
        },
        {
          "indexed": false,
          "internalType": "uint256",
          "name": "ctTokens",
          "type": "uint256"
        }
      ],
      "name": "CashbackProcessed",
      "type": "event"
    },
    {
      "anonymous": false,
      "inputs": [
        {
          "indexed": true,
          "internalType": "address",
          "name": "previousOwner",
          "type": "address"
        },
        {
          "indexed": true,
          "internalType": "address",
          "name": "newOwner",
          "type": "address"
        }
      ],
      "name": "OwnershipTransferred",
      "type": "event"
    },
    {
      "anonymous": false,
      "inputs": [
        {
          "indexed": true,
          "internalType": "address",
          "name": "referrer",
          "type": "address"
        },
        {
          "indexed": true,
          "internalType": "address",
          "name": "referred",
          "type": "address"
        },
        {
          "indexed": false,
          "internalType": "uint256",
          "name": "reward",
          "type": "uint256"
        }
      ],
      "name": "ReferralRewarded",
      "type": "event"
    },
    {
      "anonymous": false,
      "inputs": [
        {
          "indexed": false,
          "internalType": "uint256",
          "name": "tier",
          "type": "uint256"
        },
        {
          "indexed": false,
          "internalType": "uint256",
          "name": "joiningBonus",
          "type": "uint256"
        },
        {
          "indexed": false,
          "internalType": "uint256",
          "name": "cashbackRate",
          "type": "uint256"
        },
        {
          "indexed": false,
          "internalType": "uint256",
          "name": "ctTokenReward",
          "type": "uint256"
        },
        {
          "indexed": false,
          "internalType": "uint256",
          "name": "loyaltyMultiplier",
          "type": "uint256"
        }
      ],
      "name": "TierRewardsUpdated",
      "type": "event"
    },
    {
      "anonymous": false,
      "inputs": [
        {
          "indexed": true,
          "internalType": "address",
          "name": "user",
          "type": "address"
        },
        {
          "indexed": false,
          "internalType": "uint256",
          "name": "amount",
          "type": "uint256"
        },
        {
          "indexed": false,
          "internalType": "enum ClenRewards.RedemptionType",
          "name": "redemptionType",
          "type": "uint8"
        }
      ],
      "name": "TokensRedeemed",
      "type": "event"
    },
    {
      "anonymous": false,
      "inputs": [
        {
          "indexed": true,
          "internalType": "address",
          "name": "from",
          "type": "address"
        },
        {
          "indexed": true,
          "internalType": "address",
          "name": "to",
          "type": "address"
        },
        {
          "indexed": false,
          "internalType": "uint256",
          "name": "value",
          "type": "uint256"
        }
      ],
      "name": "Transfer",
      "type": "event"
    },
    {
      "stateMutability": "payable",
      "type": "fallback"
    },
    {
      "inputs": [],
      "name": "LARGE_DEPOSIT_MULTIPLIER",
      "outputs": [
        {
          "internalType": "uint256",
          "name": "",
          "type": "uint256"
        }
      ],
      "stateMutability": "view",
      "type": "function"
    },
    {
      "inputs": [],
      "name": "LARGE_DEPOSIT_THRESHOLD",
      "outputs": [
        {
          "internalType": "uint256",
          "name": "",
          "type": "uint256"
        }
      ],
      "stateMutability": "view",
      "type": "function"
    },
    {
      "inputs": [],
      "name": "REFERRAL_REWARD",
      "outputs": [
        {
          "internalType": "uint256",
          "name": "",
          "type": "uint256"
        }
      ],
      "stateMutability": "view",
      "type": "function"
    },
    {
      "inputs": [],
      "name": "TOTAL_SUPPLY_LIMIT",
      "outputs": [
        {
          "internalType": "uint256",
          "name": "",
          "type": "uint256"
        }
      ],
      "stateMutability": "view",
      "type": "function"
    },
    {
      "inputs": [
        {
          "internalType": "address",
          "name": "contractAddress",
          "type": "address"
        }
      ],
      "name": "addAuthorizedContract",
      "outputs": [],
      "stateMutability": "nonpayable",
      "type": "function"
    },
    {
      "inputs": [
        {
          "internalType": "address",
          "name": "owner",
          "type": "address"
        },
        {
          "internalType": "address",
          "name": "spender",
          "type": "address"
        }
      ],
      "name": "allowance",
      "outputs": [
        {
          "internalType": "uint256",
          "name": "",
          "type": "uint256"
        }
      ],
      "stateMutability": "view",
      "type": "function"
    },
    {
      "inputs": [
        {
          "internalType": "address",
          "name": "spender",
          "type": "address"
        },
        {
          "internalType": "uint256",
          "name": "amount",
          "type": "uint256"
        }
      ],
      "name": "approve",
      "outputs": [
        {
          "internalType": "bool",
          "name": "",
          "type": "bool"
        }
      ],
      "stateMutability": "nonpayable",
      "type": "function"
    },
    {
      "inputs": [
        {
          "internalType": "address",
          "name": "",
          "type": "address"
        }
      ],
      "name": "authorizedContracts",
      "outputs": [
        {
          "internalType": "bool",
          "name": "",
          "type": "bool"
        }
      ],
      "stateMutability": "view",
      "type": "function"
    },
    {
      "inputs": [
        {
          "internalType": "address",
          "name": "account",
          "type": "address"
        }
      ],
      "name": "balanceOf",
      "outputs": [
        {
          "internalType": "uint256",
          "name": "",
          "type": "uint256"
        }
      ],
      "stateMutability": "view",
      "type": "function"
    },
    {
      "inputs": [
        {
          "internalType": "address[]",
          "name": "recipients",
          "type": "address[]"
        },
        {
          "internalType": "uint256[]",
          "name": "amounts",
          "type": "uint256[]"
        }
      ],
      "name": "batchMint",
      "outputs": [],
      "stateMutability": "nonpayable",
      "type": "function"
    },
    {
      "inputs": [
        {
          "internalType": "uint256",
          "name": "tier",
          "type": "uint256"
        },
        {
          "internalType": "uint256",
          "name": "depositAmount",
          "type": "uint256"
        }
      ],
      "name": "calculateJoiningBonus",
      "outputs": [
        {
          "internalType": "uint256",
          "name": "",
          "type": "uint256"
        }
      ],
      "stateMutability": "view",
      "type": "function"
    },
    {
      "inputs": [],
      "name": "decimals",
      "outputs": [
        {
          "internalType": "uint8",
          "name": "",
          "type": "uint8"
        }
      ],
      "stateMutability": "view",
      "type": "function"
    },
    {
      "inputs": [
        {
          "internalType": "address",
          "name": "spender",
          "type": "address"
        },
        {
          "internalType": "uint256",
          "name": "subtractedValue",
          "type": "uint256"
        }
      ],
      "name": "decreaseAllowance",
      "outputs": [
        {
          "internalType": "bool",
          "name": "",
          "type": "bool"
        }
      ],
      "stateMutability": "nonpayable",
      "type": "function"
    },
    {
      "inputs": [],
      "name": "emergencyWithdraw",
      "outputs": [],
      "stateMutability": "nonpayable",
      "type": "function"
    },
    {
      "inputs": [
        {
          "internalType": "address",
          "name": "user",
          "type": "address"
        }
      ],
      "name": "getUserRewardSummary",
      "outputs": [
        {
          "internalType": "uint256",
          "name": "totalEarned",
          "type": "uint256"
        },
        {
          "internalType": "uint256",
          "name": "totalRedeemed",
          "type": "uint256"
        },
        {
          "internalType": "uint256",
          "name": "currentBalance",
          "type": "uint256"
        },
        {
          "internalType": "uint256",
          "name": "consecutiveMonths",
          "type": "uint256"
        },
        {
          "internalType": "uint256",
          "name": "referralCount",
          "type": "uint256"
        }
      ],
      "stateMutability": "view",
      "type": "function"
    },
    {
      "inputs": [
        {
          "internalType": "address",
          "name": "",
          "type": "address"
        }
      ],
      "name": "hasReferrer",
      "outputs": [
        {
          "internalType": "bool",
          "name": "",
          "type": "bool"
        }
      ],
      "stateMutability": "view",
      "type": "function"
    },
    {
      "inputs": [
        {
          "internalType": "address",
          "name": "spender",
          "type": "address"
        },
        {
          "internalType": "uint256",
          "name": "addedValue",
          "type": "uint256"
        }
      ],
      "name": "increaseAllowance",
      "outputs": [
        {
          "internalType": "bool",
          "name": "",
          "type": "bool"
        }
      ],
      "stateMutability": "nonpayable",
      "type": "function"
    },
    {
      "inputs": [],
      "name": "name",
      "outputs": [
        {
          "internalType": "string",
          "name": "",
          "type": "string"
        }
      ],
      "stateMutability": "view",
      "type": "function"
    },
    {
      "inputs": [],
      "name": "owner",
      "outputs": [
        {
          "internalType": "address",
          "name": "",
          "type": "address"
        }
      ],
      "stateMutability": "view",
      "type": "function"
    },
    {
      "inputs": [
        {
          "internalType": "address",
          "name": "user",
          "type": "address"
        },
        {
          "internalType": "uint256",
          "name": "spendAmount",
          "type": "uint256"
        }
      ],
      "name": "processCashback",
      "outputs": [],
      "stateMutability": "nonpayable",
      "type": "function"
    },
    {
      "inputs": [
        {
          "internalType": "address",
          "name": "referred",
          "type": "address"
        }
      ],
      "name": "processReferralReward",
      "outputs": [],
      "stateMutability": "nonpayable",
      "type": "function"
    },
    {
      "inputs": [
        {
          "internalType": "uint256",
          "name": "amount",
          "type": "uint256"
        },
        {
          "internalType": "enum ClenRewards.RedemptionType",
          "name": "redemptionType",
          "type": "uint8"
        }
      ],
      "name": "redeemCTTokens",
      "outputs": [],
      "stateMutability": "nonpayable",
      "type": "function"
    },
    {
      "inputs": [
        {
          "internalType": "address",
          "name": "",
          "type": "address"
        }
      ],
      "name": "referredBy",
      "outputs": [
        {
          "internalType": "address",
          "name": "",
          "type": "address"
        }
      ],
      "stateMutability": "view",
      "type": "function"
    },
    {
      "inputs": [
        {
          "internalType": "address",
          "name": "contractAddress",
          "type": "address"
        }
      ],
      "name": "removeAuthorizedContract",
      "outputs": [],
      "stateMutability": "nonpayable",
      "type": "function"
    },
    {
      "inputs": [],
      "name": "renounceOwnership",
      "outputs": [],
      "stateMutability": "nonpayable",
      "type": "function"
    },
    {
      "inputs": [
        {
          "internalType": "address",
          "name": "referrer",
          "type": "address"
        }
      ],
      "name": "setReferrer",
      "outputs": [],
      "stateMutability": "nonpayable",
      "type": "function"
    },
    {
      "inputs": [],
      "name": "symbol",
      "outputs": [
        {
          "internalType": "string",
          "name": "",
          "type": "string"
        }
      ],
      "stateMutability": "view",
      "type": "function"
    },
    {
      "inputs": [
        {
          "internalType": "uint256",
          "name": "",
          "type": "uint256"
        }
      ],
      "name": "tierRewards",
      "outputs": [
        {
          "internalType": "uint256",
          "name": "joiningBonus",
          "type": "uint256"
        },
        {
          "internalType": "uint256",
          "name": "cashbackRate",
          "type": "uint256"
        },
        {
          "internalType": "uint256",
          "name": "ctTokenReward",
          "type": "uint256"
        },
        {
          "internalType": "uint256",
          "name": "loyaltyMultiplier",
          "type": "uint256"
        }
      ],
      "stateMutability": "view",
      "type": "function"
    },
    {
      "inputs": [],
      "name": "totalSupply",
      "outputs": [
        {
          "internalType": "uint256",
          "name": "",
          "type": "uint256"
        }
      ],
      "stateMutability": "view",
      "type": "function"
    },
    {
      "inputs": [],
      "name": "totalSupplyLimit",
      "outputs": [
        {
          "internalType": "uint256",
          "name": "",
          "type": "uint256"
        }
      ],
      "stateMutability": "pure",
      "type": "function"
    },
    {
      "inputs": [
        {
          "internalType": "address",
          "name": "to",
          "type": "address"
        },
        {
          "internalType": "uint256",
          "name": "amount",
          "type": "uint256"
        }
      ],
      "name": "transfer",
      "outputs": [
        {
          "internalType": "bool",
          "name": "",
          "type": "bool"
        }
      ],
      "stateMutability": "nonpayable",
      "type": "function"
    },
    {
      "inputs": [
        {
          "internalType": "address",
          "name": "from",
          "type": "address"
        },
        {
          "internalType": "address",
          "name": "to",
          "type": "address"
        },
        {
          "internalType": "uint256",
          "name": "amount",
          "type": "uint256"
        }
      ],
      "name": "transferFrom",
      "outputs": [
        {
          "internalType": "bool",
          "name": "",
          "type": "bool"
        }
      ],
      "stateMutability": "nonpayable",
      "type": "function"
    },
    {
      "inputs": [
        {
          "internalType": "address",
          "name": "newOwner",
          "type": "address"
        }
      ],
      "name": "transferOwnership",
      "outputs": [],
      "stateMutability": "nonpayable",
      "type": "function"
    },
    {
      "inputs": [
        {
          "internalType": "uint256",
          "name": "tier",
          "type": "uint256"
        },
        {
          "internalType": "uint256",
          "name": "joiningBonus",
          "type": "uint256"
        },
        {
          "internalType": "uint256",
          "name": "cashbackRate",
          "type": "uint256"
        },
        {
          "internalType": "uint256",
          "name": "ctTokenReward",
          "type": "uint256"
        },
        {
          "internalType": "uint256",
          "name": "loyaltyMultiplier",
          "type": "uint256"
        }
      ],
      "name": "updateTierRewards",
      "outputs": [],
      "stateMutability": "nonpayable",
      "type": "function"
    },
    {
      "inputs": [
        {
          "internalType": "address",
          "name": "",
          "type": "address"
        }
      ],
      "name": "userRewards",
      "outputs": [
        {
          "internalType": "uint256",
          "name": "totalEarned",
          "type": "uint256"
        },
        {
          "internalType": "uint256",
          "name": "totalRedeemed",
          "type": "uint256"
        },
        {
          "internalType": "uint256",
          "name": "consecutiveMonths",
          "type": "uint256"
        },
        {
          "internalType": "uint256",
          "name": "referralCount",
          "type": "uint256"
        },
        {
          "internalType": "uint256",
          "name": "lastActivityMonth",
          "type": "uint256"
        }
      ],
      "stateMutability": "view",
      "type": "function"
    },
    {
      "stateMutability": "payable",
      "type": "receive"
    }
  ],
  "bytecode": "0x60806040523480156200001157600080fd5b506040518060400160405280600a81526020016921b632b7102a37b5b2b760b11b8152506040518060400160405280600281526020016110d560f21b8152508160039081620000619190620003e5565b506004620000708282620003e5565b5050506200008d62000087620002ea60201b60201c565b620002ee565b600160068190556040805160808082018352670de0b6b3a76400008083526064602080850182815285870193845260608087019384526000988952600780845296517fb39221ace053465ec3453ce2b36430bd138b997ecea25c1043da0c366812b8285590517fb39221ace053465ec3453ce2b36430bd138b997ecea25c1043da0c366812b8295592517fb39221ace053465ec3453ce2b36430bd138b997ecea25c1043da0c366812b82a5590517fb39221ace053465ec3453ce2b36430bd138b997ecea25c1043da0c366812b82b55845180840186526729a2241af62c00008082526096828401908152671bc16d674ec80000838901908152606e84870190815260028b5288865293517fb7c774451310d1be4108bc180d1b52823cb0ee0274a6c0081bcaf94f115fb96d5590517fb7c774451310d1be4108bc180d1b52823cb0ee0274a6c0081bcaf94f115fb96e55517fb7c774451310d1be4108bc180d1b52823cb0ee0274a6c0081bcaf94f115fb96f5590517fb7c774451310d1be4108bc180d1b52823cb0ee0274a6c0081bcaf94f115fb9705585519384018652674563918244f40000845260c88483019081529584019081526078928401928352600390965292909252517f3be6fd20d5acfde5b873b48692cd31f4d3c7e8ee8a813af4696af8859e5ca6c65590517f3be6fd20d5acfde5b873b48692cd31f4d3c7e8ee8a813af4696af8859e5ca6c75590517f3be6fd20d5acfde5b873b48692cd31f4d3c7e8ee8a813af4696af8859e5ca6c855517f3be6fd20d5acfde5b873b48692cd31f4d3c7e8ee8a813af4696af8859e5ca6c955620004b1565b3390565b600580546001600160a01b038381166001600160a01b0319831681179093556040519116919082907f8be0079c531659141344cd1fd0a4f28419497f9722a3daafe3b4186f6b6457e090600090a35050565b634e487b7160e01b600052604160045260246000fd5b600181811c908216806200036b57607f821691505b6020821081036200038c57634e487b7160e01b600052602260045260246000fd5b50919050565b601f821115620003e057600081815260208120601f850160051c81016020861015620003bb5750805b601f850160051c820191505b81811015620003dc57828155600101620003c7565b5050505b505050565b81516001600160401b0381111562000401576200040162000340565b620004198162000412845462000356565b8462000392565b602080601f831160018114620004515760008415620004385750858301515b600019600386901b1c1916600185901b178555620003dc565b600085815260208120601f198616915b82811015620004825788860151825594840194600190910190840162000461565b5085821015620004a15787850151600019600388901b60f8161c191681555b5050505050600190811b01905550565b611fcc80620004c16000396000f3fe6080604052600436106101f05760003560e01c806384a3a0f31161010c578063bac21a221161009a578063d5b9221b1161006c578063d5b9221b14610685578063db2e21bc146106b5578063dd62ed3e146106ca578063e6b165ed146106ea578063f2fde38b1461070a57005b8063bac21a2214610609578063c5d304e914610628578063ca06fd7914610648578063cc3bde3d1461066557005b806398eaa4a7116100de57806398eaa4a714610553578063a18a7bfc14610573578063a457c2d714610593578063a9059cbb146105b3578063a90f8e9a146105d357005b806384a3a0f3146104cf57806386349cbc146104ec5780638da5cb5b1461050c57806395d89b411461053e57005b80633950935111610189578063685731071161015b578063685731071461042457806370a0823114610444578063715018a61461047a57806374bdb7591461048f5780637aa5a083146104af57005b8063395093511461036d5780633fb0b4d01461038d578063556c448d146103a2578063579338e41461040457005b806318452cd8116101c257806318452cd8146102e1578063213087711461031157806323b872dd14610331578063313ce5671461035157005b80630660f1e8146101f957806306fdde0314610270578063095ea7b31461029257806318160ddd146102c257005b366101f757005b005b34801561020557600080fd5b50610243610214366004611be8565b600860205260009081526040902080546001820154600283015460038401546004909401549293919290919085565b604080519586526020860194909452928401919091526060830152608082015260a0015b60405180910390f35b34801561027c57600080fd5b5061028561072a565b6040516102679190611c03565b34801561029e57600080fd5b506102b26102ad366004611c51565b6107bc565b6040519015158152602001610267565b3480156102ce57600080fd5b506002545b604051908152602001610267565b3480156102ed57600080fd5b506102b26102fc366004611be8565b600b6020526000908152604090205460ff1681565b34801561031d57600080fd5b506101f761032c366004611c7b565b6107d6565b34801561033d57600080fd5b506102b261034c366004611cb6565b6108cd565b34801561035d57600080fd5b5060405160128152602001610267565b34801561037957600080fd5b506102b2610388366004611c51565b6108f1565b34801561039957600080fd5b506102d3609681565b3480156103ae57600080fd5b506103e46103bd366004611cf2565b60076020526000908152604090208054600182015460028301546003909301549192909184565b604080519485526020850193909352918301526060820152608001610267565b34801561041057600080fd5b506101f761041f366004611c51565b610913565b34801561043057600080fd5b506101f761043f366004611d57565b610b96565b34801561045057600080fd5b506102d361045f366004611be8565b6001600160a01b031660009081526020819052604090205490565b34801561048657600080fd5b506101f7610d53565b34801561049b57600080fd5b506101f76104aa366004611be8565b610d67565b3480156104bb57600080fd5b506101f76104ca366004611dc3565b610f3f565b3480156104db57600080fd5b506102d3681b1ae4d6e2ef50000081565b3480156104f857600080fd5b506102d3610507366004611df7565b611128565b34801561051857600080fd5b506005546001600160a01b03165b6040516001600160a01b039091168152602001610267565b34801561054a57600080fd5b506102856111bc565b34801561055f57600080fd5b506101f761056e366004611be8565b6111cb565b34801561057f57600080fd5b506101f761058e366004611be8565b6111f7565b34801561059f57600080fd5b506102b26105ae366004611c51565b611326565b3480156105bf57600080fd5b506102b26105ce366004611c51565b6113a1565b3480156105df57600080fd5b506105266105ee366004611be8565b600a602052600090815260409020546001600160a01b031681565b34801561061557600080fd5b506b033b2e3c9fd0803ce80000006102d3565b34801561063457600080fd5b50610243610643366004611be8565b6113af565b34801561065457600080fd5b506102d36802b5e3af16b188000081565b34801561067157600080fd5b506102d36b033b2e3c9fd0803ce800000081565b34801561069157600080fd5b506102b26106a0366004611be8565b60096020526000908152604090205460ff1681565b3480156106c157600080fd5b506101f7611447565b3480156106d657600080fd5b506102d36106e5366004611e19565b6114ce565b3480156106f657600080fd5b506101f7610705366004611be8565b6114f9565b34801561071657600080fd5b506101f7610725366004611be8565b611522565b60606003805461073990611e4c565b80601f016020809104026020016040519081016040528092919081815260200182805461076590611e4c565b80156107b25780601f10610787576101008083540402835291602001916107b2565b820191906000526020600020905b81548152906001019060200180831161079557829003601f168201915b5050505050905090565b6000336107ca81858561159b565b60019150505b92915050565b6107de6116c0565b600185101580156107f0575060038511155b6108305760405162461bcd60e51b815260206004820152600c60248201526b24b73b30b634b2103a34b2b960a11b60448201526064015b60405180910390fd5b60408051608080820183528682526020808301878152838501878152606080860188815260008d8152600786528890209651875592516001870155905160028601559051600390940193909355835189815290810188905292830186905290820184905281018290527f23dec947c2abda0c6508cbc8d5f912f2cdcece506596092631e05f9b4f382ca89060a00160405180910390a15050505050565b6000336108db85828561171a565b6108e6858585611794565b506001949350505050565b6000336107ca81858561090483836114ce565b61090e9190611e9c565b61159b565b3360009081526009602052604090205460ff168061093b57506005546001600160a01b031633145b6109785760405162461bcd60e51b815260206004820152600e60248201526d139bdd08185d5d1a1bdc9a5e995960921b6044820152606401610827565b600081116109bf5760405162461bcd60e51b8152602060048201526014602482015273125b9d985b1a59081cdc195b9908185b5bdd5b9d60621b6044820152606401610827565b600068056bc75e2d631000006109dd83670de0b6b3a7640000611eaf565b6109e79190611ec6565b90506b033b2e3c9fd0803ce800000081610a0060025490565b610a0a9190611e9c565b1115610a285760405162461bcd60e51b815260040161082790611ee8565b610a328382611938565b6001600160a01b03831660009081526008602052604081208054839290610a5a908490611e9c565b9091555060009050610a6f62278d0042611ec6565b6001600160a01b0385166000908152600860205260409020600401549091501580610abf57506001600160a01b038416600090815260086020526040902060040154610abc906001611e9c565b81145b15610af5576001600160a01b0384166000908152600860205260408120600201805491610aeb83611f1f565b9190505550610b38565b6001600160a01b0384166000908152600860205260409020600401548114610b38576001600160a01b038416600090815260086020526040902060016002909101555b6001600160a01b03841660008181526008602090815260409182902060040184905581518681529081018590527f7c503a88bca78b6b6991a27b3320b97e7e81718a83bdce72ed81b7c66e47d0c9910160405180910390a250505050565b610b9e6116c0565b828114610be65760405162461bcd60e51b8152602060048201526016602482015275082e4e4c2f2e640d8cadccee8d040dad2e6dac2e8c6d60531b6044820152606401610827565b6000805b82811015610c2a57838382818110610c0457610c04611f38565b9050602002013582610c169190611e9c565b915080610c2281611f1f565b915050610bea565b506b033b2e3c9fd0803ce800000081610c4260025490565b610c4c9190611e9c565b1115610c6a5760405162461bcd60e51b815260040161082790611ee8565b60005b84811015610d4b57610cbd868683818110610c8a57610c8a611f38565b9050602002016020810190610c9f9190611be8565b858584818110610cb157610cb1611f38565b90506020020135611938565b838382818110610ccf57610ccf611f38565b9050602002013560086000888885818110610cec57610cec611f38565b9050602002016020810190610d019190611be8565b6001600160a01b03166001600160a01b031681526020019081526020016000206000016000828254610d339190611e9c565b90915550819050610d4381611f1f565b915050610c6d565b505050505050565b610d5b6116c0565b610d6560006119f7565b565b3360009081526009602052604090205460ff1680610d8f57506005546001600160a01b031633145b610dcc5760405162461bcd60e51b815260206004820152600e60248201526d139bdd08185d5d1a1bdc9a5e995960921b6044820152606401610827565b6001600160a01b038082166000908152600a60205260409020541680610e285760405162461bcd60e51b8152602060048201526011602482015270139bc81c9959995c9c995c88199bdd5b99607a1b6044820152606401610827565b6b033b2e3c9fd0803ce8000000681b1ae4d6e2ef500000610e4860025490565b610e529190611e9c565b1115610e705760405162461bcd60e51b815260040161082790611ee8565b610e8381681b1ae4d6e2ef500000611938565b6001600160a01b03811660009081526008602052604081208054681b1ae4d6e2ef5000009290610eb4908490611e9c565b90915550506001600160a01b0381166000908152600860205260408120600301805491610ee083611f1f565b9190505550816001600160a01b0316816001600160a01b03167fb2dee5f49e7a09a5d7c95cd4dd5dc6410eea65d4e14519d6d3a6e14c8cf0e0e9681b1ae4d6e2ef500000604051610f3391815260200190565b60405180910390a35050565b610f47611a49565b60008211610f975760405162461bcd60e51b815260206004820152601d60248201527f416d6f756e74206d7573742062652067726561746572207468616e20300000006044820152606401610827565b33600090815260208190526040902054821115610ff65760405162461bcd60e51b815260206004820152601d60248201527f496e73756666696369656e7420435420746f6b656e2062616c616e63650000006044820152606401610827565b6110003383611aa2565b3360009081526008602052604081206001018054849290611022908490611e9c565b909155506000905081600281111561103c5761103c611f4e565b036110d7576000611055670de0b6b3a764000084611ec6565b9050804710156110a75760405162461bcd60e51b815260206004820152601d60248201527f496e73756666696369656e7420636f6e74726163742062616c616e63650000006044820152606401610827565b604051339082156108fc029083906000818181858888f193505050501580156110d4573d6000803e3d6000fd5b50505b336001600160a01b03167f6243911bd22f50865c0d6be624b8ccae3d4e984a34a8428ce621c8d2a48407c88383604051611112929190611f64565b60405180910390a26111246001600655565b5050565b60006001831015801561113c575060038311155b6111775760405162461bcd60e51b815260206004820152600c60248201526b24b73b30b634b2103a34b2b960a11b6044820152606401610827565b6000838152600760205260409020546802b5e3af16b188000083106111b55760646111a3609683611eaf565b6111ad9190611ec6565b9150506107d0565b9392505050565b60606004805461073990611e4c565b6111d36116c0565b6001600160a01b03166000908152600960205260409020805460ff19166001179055565b336001600160a01b038216036112475760405162461bcd60e51b815260206004820152601560248201527421b0b73737ba103932b332b9103cb7bab939b2b63360591b6044820152606401610827565b336000908152600b602052604090205460ff161561129a5760405162461bcd60e51b815260206004820152601060248201526f105b1c9958591e481c9959995c9c995960821b6044820152606401610827565b6001600160a01b0381166112e35760405162461bcd60e51b815260206004820152601060248201526f24b73b30b634b2103932b332b93932b960811b6044820152606401610827565b336000908152600a6020908152604080832080546001600160a01b0319166001600160a01b039590951694909417909355600b905220805460ff19166001179055565b6000338161133482866114ce565b9050838110156113945760405162461bcd60e51b815260206004820152602560248201527f45524332303a2064656372656173656420616c6c6f77616e63652062656c6f77604482015264207a65726f60d81b6064820152608401610827565b6108e6828686840361159b565b6000336107ca818585611794565b6001600160a01b0381166000818152600860209081526040808320815160a081018352815480825260018301548286018190526002840154838601526003840154606084015260049093015460808301529585529284905290832054929384938493849384939192600084604001511161142a576001611430565b83604001515b606090940151929a91995097509195509350915050565b61144f6116c0565b47806114945760405162461bcd60e51b81526020600482015260146024820152734e6f2066756e647320746f20776974686472617760601b6044820152606401610827565b6005546040516001600160a01b039091169082156108fc029083906000818181858888f19350505050158015611124573d6000803e3d6000fd5b6001600160a01b03918216600090815260016020908152604080832093909416825291909152205490565b6115016116c0565b6001600160a01b03166000908152600960205260409020805460ff19169055565b61152a6116c0565b6001600160a01b03811661158f5760405162461bcd60e51b815260206004820152602660248201527f4f776e61626c653a206e6577206f776e657220697320746865207a65726f206160448201526564647265737360d01b6064820152608401610827565b611598816119f7565b50565b6001600160a01b0383166115fd5760405162461bcd60e51b8152602060048201526024808201527f45524332303a20617070726f76652066726f6d20746865207a65726f206164646044820152637265737360e01b6064820152608401610827565b6001600160a01b03821661165e5760405162461bcd60e51b815260206004820152602260248201527f45524332303a20617070726f766520746f20746865207a65726f206164647265604482015261737360f01b6064820152608401610827565b6001600160a01b0383811660008181526001602090815260408083209487168084529482529182902085905590518481527f8c5be1e5ebec7d5bd14f71427d1e84f3dd0314c0f7b2291e5b200ac8c7c3b92591015b60405180910390a3505050565b6005546001600160a01b03163314610d655760405162461bcd60e51b815260206004820181905260248201527f4f776e61626c653a2063616c6c6572206973206e6f7420746865206f776e65726044820152606401610827565b600061172684846114ce565b9050600019811461178e57818110156117815760405162461bcd60e51b815260206004820152601d60248201527f45524332303a20696e73756666696369656e7420616c6c6f77616e63650000006044820152606401610827565b61178e848484840361159b565b50505050565b6001600160a01b0383166117f85760405162461bcd60e51b815260206004820152602560248201527f45524332303a207472616e736665722066726f6d20746865207a65726f206164604482015264647265737360d81b6064820152608401610827565b6001600160a01b03821661185a5760405162461bcd60e51b815260206004820152602360248201527f45524332303a207472616e7366657220746f20746865207a65726f206164647260448201526265737360e81b6064820152608401610827565b6001600160a01b038316600090815260208190526040902054818110156118d25760405162461bcd60e51b815260206004820152602660248201527f45524332303a207472616e7366657220616d6f756e7420657863656564732062604482015265616c616e636560d01b6064820152608401610827565b6001600160a01b03848116600081815260208181526040808320878703905593871680835291849020805487019055925185815290927fddf252ad1be2c89b69c2b068fc378daa952ba7f163c4a11628f55a4df523b3ef910160405180910390a361178e565b6001600160a01b03821661198e5760405162461bcd60e51b815260206004820152601f60248201527f45524332303a206d696e7420746f20746865207a65726f2061646472657373006044820152606401610827565b80600260008282546119a09190611e9c565b90915550506001600160a01b038216600081815260208181526040808320805486019055518481527fddf252ad1be2c89b69c2b068fc378daa952ba7f163c4a11628f55a4df523b3ef910160405180910390a35050565b600580546001600160a01b038381166001600160a01b0319831681179093556040519116919082907f8be0079c531659141344cd1fd0a4f28419497f9722a3daafe3b4186f6b6457e090600090a35050565b600260065403611a9b5760405162461bcd60e51b815260206004820152601f60248201527f5265656e7472616e637947756172643a207265656e7472616e742063616c6c006044820152606401610827565b6002600655565b6001600160a01b038216611b025760405162461bcd60e51b815260206004820152602160248201527f45524332303a206275726e2066726f6d20746865207a65726f206164647265736044820152607360f81b6064820152608401610827565b6001600160a01b03821660009081526020819052604090205481811015611b765760405162461bcd60e51b815260206004820152602260248201527f45524332303a206275726e20616d6f756e7420657863656564732062616c616e604482015261636560f01b6064820152608401610827565b6001600160a01b0383166000818152602081815260408083208686039055600280548790039055518581529192917fddf252ad1be2c89b69c2b068fc378daa952ba7f163c4a11628f55a4df523b3ef91016116b3565b80356001600160a01b0381168114611be357600080fd5b919050565b600060208284031215611bfa57600080fd5b6111b582611bcc565b600060208083528351808285015260005b81811015611c3057858101830151858201604001528201611c14565b506000604082860101526040601f19601f8301168501019250505092915050565b60008060408385031215611c6457600080fd5b611c6d83611bcc565b946020939093013593505050565b600080600080600060a08688031215611c9357600080fd5b505083359560208501359550604085013594606081013594506080013592509050565b600080600060608486031215611ccb57600080fd5b611cd484611bcc565b9250611ce260208501611bcc565b9150604084013590509250925092565b600060208284031215611d0457600080fd5b5035919050565b60008083601f840112611d1d57600080fd5b50813567ffffffffffffffff811115611d3557600080fd5b6020830191508360208260051b8501011115611d5057600080fd5b9250929050565b60008060008060408587031215611d6d57600080fd5b843567ffffffffffffffff80821115611d8557600080fd5b611d9188838901611d0b565b90965094506020870135915080821115611daa57600080fd5b50611db787828801611d0b565b95989497509550505050565b60008060408385031215611dd657600080fd5b82359150602083013560038110611dec57600080fd5b809150509250929050565b60008060408385031215611e0a57600080fd5b50508035926020909101359150565b60008060408385031215611e2c57600080fd5b611e3583611bcc565b9150611e4360208401611bcc565b90509250929050565b600181811c90821680611e6057607f821691505b602082108103611e8057634e487b7160e01b600052602260045260246000fd5b50919050565b634e487b7160e01b600052601160045260246000fd5b808201808211156107d0576107d0611e86565b80820281158282048414176107d0576107d0611e86565b600082611ee357634e487b7160e01b600052601260045260246000fd5b500490565b60208082526019908201527f576f756c642065786365656420746f74616c20737570706c7900000000000000604082015260600190565b600060018201611f3157611f31611e86565b5060010190565b634e487b7160e01b600052603260045260246000fd5b634e487b7160e01b600052602160045260246000fd5b8281526040810160038310611f8957634e487b7160e01b600052602160045260246000fd5b826020830152939250505056fea264697066735822122060e929df0efa96d288876ef24601c76811c647f245ff5a7c5adfd0729824deda64736f6c63430008130033",
  "linkReferences": {},
  "deployedLinkReferences": {}
}