{
  "_format": "hh-sol-artifact-1",
  "contractName": "ClenCreditScore",
  "sourceName": "contracts/ClenCreditScore.sol",
  "abi": [
    {
      "inputs": [],
      "stateMutability": "nonpayable",
      "type": "constructor"
    },
    {
      "anonymous": false,
      "inputs": [
        {
          "indexed": true,
          "internalType": "address",
          "name": "previousOwner",
          "type": "address"
        },
        {
          "indexed": true,
          "internalType": "address",
          "name": "newOwner",
          "type": "address"
        }
      ],
      "name": "OwnershipTransferred",
      "type": "event"
    },
    {
      "anonymous": false,
      "inputs": [
        {
          "indexed": true,
          "internalType": "address",
          "name": "user",
          "type": "address"
        },
        {
          "indexed": false,
          "internalType": "bool",
          "name": "isOnTime",
          "type": "bool"
        },
        {
          "indexed": false,
          "internalType": "uint256",
          "name": "amount",
          "type": "uint256"
        }
      ],
      "name": "RepaymentRecorded",
      "type": "event"
    },
    {
      "anonymous": false,
      "inputs": [
        {
          "indexed": true,
          "internalType": "address",
          "name": "user",
          "type": "address"
        },
        {
          "indexed": false,
          "internalType": "uint256",
          "name": "newScore",
          "type": "uint256"
        },
        {
          "indexed": false,
          "internalType": "string",
          "name": "reason",
          "type": "string"
        }
      ],
      "name": "ScoreUpdated",
      "type": "event"
    },
    {
      "anonymous": false,
      "inputs": [
        {
          "indexed": true,
          "internalType": "address",
          "name": "user",
          "type": "address"
        },
        {
          "indexed": false,
          "internalType": "uint256",
          "name": "amount",
          "type": "uint256"
        },
        {
          "indexed": true,
          "internalType": "address",
          "name": "merchant",
          "type": "address"
        }
      ],
      "name": "TransactionRecorded",
      "type": "event"
    },
    {
      "inputs": [],
      "name": "DEFAULT_PENALTY",
      "outputs": [
        {
          "internalType": "uint256",
          "name": "",
          "type": "uint256"
        }
      ],
      "stateMutability": "view",
      "type": "function"
    },
    {
      "inputs": [],
      "name": "DEFAULT_SCORE",
      "outputs": [
        {
          "internalType": "uint256",
          "name": "",
          "type": "uint256"
        }
      ],
      "stateMutability": "view",
      "type": "function"
    },
    {
      "inputs": [],
      "name": "MAX_SCORE",
      "outputs": [
        {
          "internalType": "uint256",
          "name": "",
          "type": "uint256"
        }
      ],
      "stateMutability": "view",
      "type": "function"
    },
    {
      "inputs": [],
      "name": "MERCHANT_WEIGHT",
      "outputs": [
        {
          "internalType": "uint256",
          "name": "",
          "type": "uint256"
        }
      ],
      "stateMutability": "view",
      "type": "function"
    },
    {
      "inputs": [],
      "name": "MIN_SCORE",
      "outputs": [
        {
          "internalType": "uint256",
          "name": "",
          "type": "uint256"
        }
      ],
      "stateMutability": "view",
      "type": "function"
    },
    {
      "inputs": [],
      "name": "REPAYMENT_WEIGHT",
      "outputs": [
        {
          "internalType": "uint256",
          "name": "",
          "type": "uint256"
        }
      ],
      "stateMutability": "view",
      "type": "function"
    },
    {
      "inputs": [],
      "name": "TRANSACTION_WEIGHT",
      "outputs": [
        {
          "internalType": "uint256",
          "name": "",
          "type": "uint256"
        }
      ],
      "stateMutability": "view",
      "type": "function"
    },
    {
      "inputs": [
        {
          "internalType": "address",
          "name": "_contract",
          "type": "address"
        }
      ],
      "name": "addAuthorizedContract",
      "outputs": [],
      "stateMutability": "nonpayable",
      "type": "function"
    },
    {
      "inputs": [
        {
          "internalType": "address",
          "name": "",
          "type": "address"
        }
      ],
      "name": "authorizedContracts",
      "outputs": [
        {
          "internalType": "bool",
          "name": "",
          "type": "bool"
        }
      ],
      "stateMutability": "view",
      "type": "function"
    },
    {
      "inputs": [
        {
          "internalType": "address[]",
          "name": "_users",
          "type": "address[]"
        }
      ],
      "name": "batchUpdateScores",
      "outputs": [],
      "stateMutability": "nonpayable",
      "type": "function"
    },
    {
      "inputs": [
        {
          "internalType": "address",
          "name": "_user",
          "type": "address"
        }
      ],
      "name": "calculateCreditScore",
      "outputs": [
        {
          "internalType": "uint256",
          "name": "",
          "type": "uint256"
        }
      ],
      "stateMutability": "view",
      "type": "function"
    },
    {
      "inputs": [
        {
          "internalType": "address",
          "name": "",
          "type": "address"
        }
      ],
      "name": "creditProfiles",
      "outputs": [
        {
          "internalType": "uint256",
          "name": "score",
          "type": "uint256"
        },
        {
          "internalType": "uint256",
          "name": "totalTransactions",
          "type": "uint256"
        },
        {
          "internalType": "uint256",
          "name": "onTimePayments",
          "type": "uint256"
        },
        {
          "internalType": "uint256",
          "name": "latePayments",
          "type": "uint256"
        },
        {
          "internalType": "uint256",
          "name": "defaults",
          "type": "uint256"
        },
        {
          "internalType": "uint256",
          "name": "totalSpent",
          "type": "uint256"
        },
        {
          "internalType": "uint256",
          "name": "avgRepaymentTime",
          "type": "uint256"
        },
        {
          "internalType": "uint256",
          "name": "lastUpdated",
          "type": "uint256"
        },
        {
          "internalType": "uint256",
          "name": "uniqueMerchants",
          "type": "uint256"
        }
      ],
      "stateMutability": "view",
      "type": "function"
    },
    {
      "inputs": [
        {
          "internalType": "address",
          "name": "_user",
          "type": "address"
        },
        {
          "internalType": "uint256",
          "name": "_count",
          "type": "uint256"
        }
      ],
      "name": "getCreditHistory",
      "outputs": [
        {
          "components": [
            {
              "internalType": "uint256",
              "name": "amount",
              "type": "uint256"
            },
            {
              "internalType": "address",
              "name": "merchant",
              "type": "address"
            },
            {
              "internalType": "uint256",
              "name": "timestamp",
              "type": "uint256"
            },
            {
              "internalType": "bool",
              "name": "isCounted",
              "type": "bool"
            }
          ],
          "internalType": "struct ClenCreditScore.TransactionRecord[]",
          "name": "",
          "type": "tuple[]"
        }
      ],
      "stateMutability": "view",
      "type": "function"
    },
    {
      "inputs": [
        {
          "internalType": "address",
          "name": "_user",
          "type": "address"
        }
      ],
      "name": "getCreditProfile",
      "outputs": [
        {
          "components": [
            {
              "internalType": "uint256",
              "name": "score",
              "type": "uint256"
            },
            {
              "internalType": "uint256",
              "name": "totalTransactions",
              "type": "uint256"
            },
            {
              "internalType": "uint256",
              "name": "onTimePayments",
              "type": "uint256"
            },
            {
              "internalType": "uint256",
              "name": "latePayments",
              "type": "uint256"
            },
            {
              "internalType": "uint256",
              "name": "defaults",
              "type": "uint256"
            },
            {
              "internalType": "uint256",
              "name": "totalSpent",
              "type": "uint256"
            },
            {
              "internalType": "uint256",
              "name": "avgRepaymentTime",
              "type": "uint256"
            },
            {
              "internalType": "uint256",
              "name": "lastUpdated",
              "type": "uint256"
            },
            {
              "internalType": "uint256",
              "name": "uniqueMerchants",
              "type": "uint256"
            }
          ],
          "internalType": "struct ClenCreditScore.CreditProfile",
          "name": "",
          "type": "tuple"
        }
      ],
      "stateMutability": "view",
      "type": "function"
    },
    {
      "inputs": [
        {
          "internalType": "address",
          "name": "_user",
          "type": "address"
        }
      ],
      "name": "getCreditScore",
      "outputs": [
        {
          "internalType": "uint256",
          "name": "",
          "type": "uint256"
        }
      ],
      "stateMutability": "view",
      "type": "function"
    },
    {
      "inputs": [
        {
          "internalType": "address",
          "name": "_user",
          "type": "address"
        }
      ],
      "name": "getScoreBreakdown",
      "outputs": [
        {
          "internalType": "uint256",
          "name": "repaymentScore",
          "type": "uint256"
        },
        {
          "internalType": "uint256",
          "name": "transactionScore",
          "type": "uint256"
        },
        {
          "internalType": "uint256",
          "name": "merchantScore",
          "type": "uint256"
        },
        {
          "internalType": "uint256",
          "name": "defaultPenalty",
          "type": "uint256"
        },
        {
          "internalType": "uint256",
          "name": "totalScore",
          "type": "uint256"
        }
      ],
      "stateMutability": "view",
      "type": "function"
    },
    {
      "inputs": [
        {
          "internalType": "address",
          "name": "_user",
          "type": "address"
        }
      ],
      "name": "initializeCreditProfile",
      "outputs": [],
      "stateMutability": "nonpayable",
      "type": "function"
    },
    {
      "inputs": [],
      "name": "owner",
      "outputs": [
        {
          "internalType": "address",
          "name": "",
          "type": "address"
        }
      ],
      "stateMutability": "view",
      "type": "function"
    },
    {
      "inputs": [
        {
          "internalType": "address",
          "name": "_user",
          "type": "address"
        }
      ],
      "name": "recordDefault",
      "outputs": [],
      "stateMutability": "nonpayable",
      "type": "function"
    },
    {
      "inputs": [
        {
          "internalType": "address",
          "name": "_contract",
          "type": "address"
        }
      ],
      "name": "removeAuthorizedContract",
      "outputs": [],
      "stateMutability": "nonpayable",
      "type": "function"
    },
    {
      "inputs": [],
      "name": "renounceOwnership",
      "outputs": [],
      "stateMutability": "nonpayable",
      "type": "function"
    },
    {
      "inputs": [
        {
          "internalType": "address",
          "name": "newOwner",
          "type": "address"
        }
      ],
      "name": "transferOwnership",
      "outputs": [],
      "stateMutability": "nonpayable",
      "type": "function"
    },
    {
      "inputs": [
        {
          "internalType": "address",
          "name": "_user",
          "type": "address"
        },
        {
          "internalType": "bool",
          "name": "_isOnTime",
          "type": "bool"
        },
        {
          "internalType": "uint256",
          "name": "_amount",
          "type": "uint256"
        }
      ],
      "name": "updateScoreAfterRepayment",
      "outputs": [],
      "stateMutability": "nonpayable",
      "type": "function"
    },
    {
      "inputs": [
        {
          "internalType": "address",
          "name": "_user",
          "type": "address"
        },
        {
          "internalType": "uint256",
          "name": "_amount",
          "type": "uint256"
        },
        {
          "internalType": "address",
          "name": "_merchant",
          "type": "address"
        }
      ],
      "name": "updateScoreAfterSpend",
      "outputs": [],
      "stateMutability": "nonpayable",
      "type": "function"
    },
    {
      "inputs": [
        {
          "internalType": "address",
          "name": "",
          "type": "address"
        },
        {
          "internalType": "address",
          "name": "",
          "type": "address"
        }
      ],
      "name": "userMerchants",
      "outputs": [
        {
          "internalType": "bool",
          "name": "",
          "type": "bool"
        }
      ],
      "stateMutability": "view",
      "type": "function"
    },
    {
      "inputs": [
        {
          "internalType": "address",
          "name": "",
          "type": "address"
        },
        {
          "internalType": "uint256",
          "name": "",
          "type": "uint256"
        }
      ],
      "name": "userTransactions",
      "outputs": [
        {
          "internalType": "uint256",
          "name": "amount",
          "type": "uint256"
        },
        {
          "internalType": "address",
          "name": "merchant",
          "type": "address"
        },
        {
          "internalType": "uint256",
          "name": "timestamp",
          "type": "uint256"
        },
        {
          "internalType": "bool",
          "name": "isCounted",
          "type": "bool"
        }
      ],
      "stateMutability": "view",
      "type": "function"
    }
  ],
  "bytecode": "0x608060405234801561001057600080fd5b5061001a33610039565b336000908152600460205260409020805460ff19166001179055610089565b600080546001600160a01b038381166001600160a01b0319831681178455604051919092169283917f8be0079c531659141344cd1fd0a4f28419497f9722a3daafe3b4186f6b6457e09190a35050565b611823806100986000396000f3fe608060405234801561001057600080fd5b506004361061018e5760003560e01c806398eaa4a7116100de578063d5b9221b11610097578063ec3fd9dd11610071578063ec3fd9dd14610495578063f1c3753a146104a8578063f2fde38b146104bb578063fb680487146104ce57600080fd5b8063d5b9221b14610456578063df65e9e414610479578063e6b165ed1461048257600080fd5b806398eaa4a71461039a5780639cc13ad5146103ad5780639d49cb5d146103c0578063b842ec44146103fe578063bf15e0171461043b578063d3dd2bdf1461044357600080fd5b806341841ed01161014b578063715018a611610125578063715018a61461035c5780638da5cb5b146103645780638df7352c1461037f57806394bd840a1461039257600080fd5b806341841ed01461029f57806345171f26146102b457806346df6fb91461035457600080fd5b8063079bafe314610193578063098e9d551461021c57806327ff62231461023c5780632c27750a146102535780633344a8591461028e57806340b8927014610296575b600080fd5b6101a66101a13660046114b2565b6104e1565b6040516102139190600061012082019050825182526020830151602083015260408301516040830152606083015160608301526080830151608083015260a083015160a083015260c083015160c083015260e083015160e083015261010080840151818401525092915050565b60405180910390f35b61022f61022a3660046114d4565b6105b1565b60405161021391906114fe565b61024561035281565b604051908152602001610213565b6102666102613660046114b2565b6107b0565b604080519586526020860194909452928401919091526060830152608082015260a001610213565b610245601e81565b61024561012c81565b6102b26102ad36600461156d565b6108df565b005b6103106102c23660046114b2565b60016020528060005260406000206000915090508060000154908060010154908060020154908060030154908060040154908060050154908060060154908060070154908060080154905089565b60408051998a5260208a0198909852968801959095526060870193909352608086019190915260a085015260c084015260e083015261010082015261012001610213565b610245601481565b6102b2610b2c565b6000546040516001600160a01b039091168152602001610213565b6102b261038d3660046114b2565b610b40565b610245602881565b6102b26103a83660046114b2565b610c32565b6102b26103bb3660046115a9565b610c5e565b6103ee6103ce36600461161e565b600360209081526000928352604080842090915290825290205460ff1681565b6040519015158152602001610213565b61041161040c3660046114d4565b610d55565b604080519485526001600160a01b0390931660208501529183015215156060820152608001610213565b610245600a81565b6102456104513660046114b2565b610da7565b6103ee6104643660046114b2565b60046020526000908152604090205460ff1681565b6102456101f481565b6102b26104903660046114b2565b610dee565b6102b26104a33660046114b2565b610e17565b6102456104b63660046114b2565b610f32565b6102b26104c93660046114b2565b61119a565b6102b26104dc366004611651565b611210565b6105306040518061012001604052806000815260200160008152602001600081526020016000815260200160008152602001600081526020016000815260200160008152602001600081525090565b506001600160a01b03166000908152600160208181526040928390208351610120810185528154815292810154918301919091526002810154928201929092526003820154606082015260048201546080820152600582015460a0820152600682015460c0820152600782015460e082015260089091015461010082015290565b6001600160a01b0382166000908152600260209081526040808320805482518185028101850190935280835260609493849084015b828210156106485760008481526020908190206040805160808101825260048602909201805483526001808201546001600160a01b0316848601526002820154928401929092526003015460ff161515606083015290835290920191016105e6565b5050825192935050811590508061065d575083155b156106b65760408051600080825260208201909252906106ac565b6040805160808101825260008082526020808301829052928201819052606082015282526000199092019101816106785790505b50925050506107aa565b60008185116106c557846106c7565b815b905060008167ffffffffffffffff8111156106e4576106e4611695565b60405190808252806020026020018201604052801561073657816020015b6040805160808101825260008082526020808301829052928201819052606082015282526000199092019101816107025790505b50905060005b828110156107a35784816107516001876116c1565b61075b91906116c1565b8151811061076b5761076b6116d4565b6020026020010151828281518110610785576107856116d4565b6020026020010181905250808061079b906116ea565b91505061073c565b5093505050505b92915050565b6001600160a01b0381166000908152600160208181526040808420815161012081018352815481529381015492840192909252600282015490830181905260038201546060840181905260048301546080850152600583015460a0850152600683015460c0850152600783015460e085015260089092015461010084015283928392839283929183916108439190611703565b9050801561086e57808260400151606461085d9190611716565b610867919061172d565b9650610873565b603296505b606482602001511161088957816020015161088c565b60645b95506014826101000151116108b1576101008201516108ac906005611716565b6108b4565b60645b9450816080015160326108c79190611716565b93506108d288610f32565b9250505091939590929450565b3360009081526004602052604090205460ff168061090757506000546001600160a01b031633145b61092c5760405162461bcd60e51b81526004016109239061174f565b60405180910390fd5b61093583610e17565b6001600160a01b038381166000908152600160208181526040808420600280845282862083516080810185528a815289891681870190815242958201958652606082018981528354808a018555938a52968920915160049093029091019182555181870180546001600160a01b031916919099161790975591519186019190915590516003909401805460ff19169415159490941790935582018054916109db836116ea565b9190505550828160050160008282546109f49190611703565b90915550506001600160a01b0380851660009081526003602090815260408083209386168352929052205460ff16610a6e576001600160a01b0380851660009081526003602090815260408083209386168352929052908120805460ff1916600117905560088201805491610a68836116ea565b91905055505b6000610a7985610f32565b8083554260078401556040518581529091506001600160a01b0384811691908716907f40c748dbe266915285fbddee3d8b5e1e9c19095cb68f9c12f6042c939fbab9cf9060200160405180910390a3846001600160a01b03166000805160206117ce83398151915282604051610b1d91815260406020820181905260149082015273151c985b9cd858dd1a5bdb881c9958dbdc99195960621b606082015260800190565b60405180910390a25050505050565b610b346113ec565b610b3e6000611446565b565b3360009081526004602052604090205460ff1680610b6857506000546001600160a01b031633145b610b845760405162461bcd60e51b81526004016109239061174f565b610b8d81610e17565b6001600160a01b03811660009081526001602052604081206004810180549192610bb6836116ea565b91905055506000610bc683610f32565b8083554260078401556040519091506001600160a01b038416906000805160206117ce83398151915290610c25908481526040602082018190526010908201526f111959985d5b1d081c9958dbdc99195960821b606082015260800190565b60405180910390a2505050565b610c3a6113ec565b6001600160a01b03166000908152600460205260409020805460ff19166001179055565b610c666113ec565b60005b81811015610d50576000838383818110610c8557610c856116d4565b9050602002016020810190610c9a91906114b2565b6001600160a01b03811660009081526001602052604090206007015490915015610d3d576000610cc982610f32565b6001600160a01b038316600081815260016020526040908190208381554260079091015551919250906000805160206117ce83398151915290610d3390848152604060208201819052600c908201526b42617463682075706461746560a01b606082015260800190565b60405180910390a2505b5080610d48816116ea565b915050610c69565b505050565b60026020528160005260406000208181548110610d7157600080fd5b600091825260209091206004909102018054600182015460028301546003909301549194506001600160a01b0316925060ff1684565b6001600160a01b0381166000908152600160205260408120600701548103610dd257506101f4919050565b506001600160a01b031660009081526001602052604090205490565b610df66113ec565b6001600160a01b03166000908152600460205260409020805460ff19169055565b6001600160a01b0381166000908152600160205260408120600701549003610f2f5760408051610120810182526101f480825260006020808401828152848601838152606086018481526080870185815260a0880186815260c089018781524260e08b019081526101008b018981526001600160a01b038e16808b526001998a9052998d90209b518c559651978b0197909755935160028a0155915160038901555160048801555160058701555160068601559051600785015551600890930192909255915190916000805160206117ce83398151915291610f2691815260406020820181905260139082015272141c9bd99a5b19481a5b9a5d1a585b1a5e9959606a1b606082015260800190565b60405180910390a25b50565b6001600160a01b03811660009081526001602081815260408084208151610120810183528154815293810154928401929092526002820154908301526003810154606083015260048101546080830152600581015460a0830152600681015460c0830152600781015460e083018190526008909101546101008301528203610fbe57506101f492915050565b60008082606001518360400151610fd59190611703565b905080156110265760008184604001516064610ff19190611716565b610ffb919061172d565b9050606461100a602883611716565b611014919061172d565b61101e9084611703565b92505061104d565b6103e861103660286101f4611716565b611040919061172d565b61104a9083611703565b91505b602083015160009015611076576064846020015111611070578360200151611073565b60645b90505b6064611083601e83611716565b61108d919061172d565b6110979084611703565b925060008085610100015111156110d1576014856101000151116110cb576101008501516110c6906005611716565b6110ce565b60645b90505b60646110de601483611716565b6110e8919061172d565b6110f29085611703565b60808601519094501561113d576000856080015160326111129190611716565b90506064811115611121575060645b80851161112f576000611139565b61113981866116c1565b9450505b6000606461114f61012c6103526116c1565b6111599087611716565b611163919061172d565b61116f9061012c611703565b905061012c811015611180575061012c5b61035281111561118f57506103525b979650505050505050565b6111a26113ec565b6001600160a01b0381166112075760405162461bcd60e51b815260206004820152602660248201527f4f776e61626c653a206e6577206f776e657220697320746865207a65726f206160448201526564647265737360d01b6064820152608401610923565b610f2f81611446565b3360009081526004602052604090205460ff168061123857506000546001600160a01b031633145b6112545760405162461bcd60e51b81526004016109239061174f565b61125d83610e17565b6001600160a01b038316600090815260016020526040902082156112975760028101805490600061128d836116ea565b91905055506112af565b6003810180549060006112a9836116ea565b91905055505b6000816003015482600201546112c59190611703565b111561130b576000816003015482600201546112e19190611703565b905080846112f25762278d006112f5565b60005b62ffffff16611304919061172d565b6006830155505b600061131685610f32565b808355426007840155604080518615158152602081018690529192506001600160a01b038716917fcd600c3b250b542cfe30f0223aeaf9f7ff166c4ccc7ffd69cd1eca79d5a9309c910160405180910390a2846001600160a01b03166000805160206117ce83398151915282866113b3576040518060400160405280600e81526020016d13185d19481c995c185e5b595b9d60921b8152506113de565b6040518060400160405280601181526020017013db8b5d1a5b59481c995c185e5b595b9d607a1b8152505b604051610b1d929190611777565b6000546001600160a01b03163314610b3e5760405162461bcd60e51b815260206004820181905260248201527f4f776e61626c653a2063616c6c6572206973206e6f7420746865206f776e65726044820152606401610923565b600080546001600160a01b038381166001600160a01b0319831681178455604051919092169283917f8be0079c531659141344cd1fd0a4f28419497f9722a3daafe3b4186f6b6457e09190a35050565b80356001600160a01b03811681146114ad57600080fd5b919050565b6000602082840312156114c457600080fd5b6114cd82611496565b9392505050565b600080604083850312156114e757600080fd5b6114f083611496565b946020939093013593505050565b602080825282518282018190526000919060409081850190868401855b8281101561156057815180518552868101516001600160a01b03168786015285810151868601526060908101511515908501526080909301929085019060010161151b565b5091979650505050505050565b60008060006060848603121561158257600080fd5b61158b84611496565b9250602084013591506115a060408501611496565b90509250925092565b600080602083850312156115bc57600080fd5b823567ffffffffffffffff808211156115d457600080fd5b818501915085601f8301126115e857600080fd5b8135818111156115f757600080fd5b8660208260051b850101111561160c57600080fd5b60209290920196919550909350505050565b6000806040838503121561163157600080fd5b61163a83611496565b915061164860208401611496565b90509250929050565b60008060006060848603121561166657600080fd5b61166f84611496565b92506020840135801515811461168457600080fd5b929592945050506040919091013590565b634e487b7160e01b600052604160045260246000fd5b634e487b7160e01b600052601160045260246000fd5b818103818111156107aa576107aa6116ab565b634e487b7160e01b600052603260045260246000fd5b6000600182016116fc576116fc6116ab565b5060010190565b808201808211156107aa576107aa6116ab565b80820281158282048414176107aa576107aa6116ab565b60008261174a57634e487b7160e01b600052601260045260246000fd5b500490565b6020808252600e908201526d139bdd08185d5d1a1bdc9a5e995960921b604082015260600190565b82815260006020604081840152835180604085015260005b818110156117ab5785810183015185820160600152820161178f565b506000606082860101526060601f19601f83011685010192505050939250505056fe2b535fbf4d2281f734a35408583a14d4e2b28653b00d761613e8758399dd6e6da264697066735822122064e3ae5290934177dcc51973d17871972c1e488f8abac699b4aec486ebe41e7364736f6c63430008130033",
  "linkReferences": {},
  "deployedLinkReferences": {}
}