{
  "_format": "hh-sol-artifact-1",
  "contractName": "ClenNFTCard",
  "sourceName": "contracts/ClenNFTCard.sol",
  "abi": [
    {
      "inputs": [],
      "stateMutability": "payable",
      "type": "constructor"
    },
    {
      "anonymous": false,
      "inputs": [
        {
          "indexed": true,
          "internalType": "address",
          "name": "owner",
          "type": "address"
        },
        {
          "indexed": true,
          "internalType": "address",
          "name": "approved",
          "type": "address"
        },
        {
          "indexed": true,
          "internalType": "uint256",
          "name": "tokenId",
          "type": "uint256"
        }
      ],
      "name": "Approval",
      "type": "event"
    },
    {
      "anonymous": false,
      "inputs": [
        {
          "indexed": true,
          "internalType": "address",
          "name": "owner",
          "type": "address"
        },
        {
          "indexed": true,
          "internalType": "address",
          "name": "operator",
          "type": "address"
        },
        {
          "indexed": false,
          "internalType": "bool",
          "name": "approved",
          "type": "bool"
        }
      ],
      "name": "ApprovalForAll",
      "type": "event"
    },
    {
      "anonymous": false,
      "inputs": [
        {
          "indexed": true,
          "internalType": "uint256",
          "name": "cardId",
          "type": "uint256"
        },
        {
          "indexed": false,
          "internalType": "string",
          "name": "reason",
          "type": "string"
        }
      ],
      "name": "CardBurned",
      "type": "event"
    },
    {
      "anonymous": false,
      "inputs": [
        {
          "indexed": true,
          "internalType": "uint256",
          "name": "cardId",
          "type": "uint256"
        },
        {
          "indexed": false,
          "internalType": "uint256",
          "name": "outstandingBalance",
          "type": "uint256"
        }
      ],
      "name": "CardExpired",
      "type": "event"
    },
    {
      "anonymous": false,
      "inputs": [
        {
          "indexed": true,
          "internalType": "address",
          "name": "user",
          "type": "address"
        },
        {
          "indexed": true,
          "internalType": "uint256",
          "name": "cardId",
          "type": "uint256"
        },
        {
          "indexed": false,
          "internalType": "uint256",
          "name": "depositAmount",
          "type": "uint256"
        },
        {
          "indexed": false,
          "internalType": "uint256",
          "name": "spendingLimit",
          "type": "uint256"
        }
      ],
      "name": "CardMinted",
      "type": "event"
    },
    {
      "anonymous": false,
      "inputs": [
        {
          "indexed": true,
          "internalType": "address",
          "name": "user",
          "type": "address"
        },
        {
          "indexed": false,
          "internalType": "uint256",
          "name": "cardId",
          "type": "uint256"
        },
        {
          "indexed": false,
          "internalType": "uint256",
          "name": "creditAmount",
          "type": "uint256"
        }
      ],
      "name": "CreditIssued",
      "type": "event"
    },
    {
      "anonymous": false,
      "inputs": [
        {
          "indexed": true,
          "internalType": "address",
          "name": "user",
          "type": "address"
        },
        {
          "indexed": false,
          "internalType": "uint256",
          "name": "cardId",
          "type": "uint256"
        },
        {
          "indexed": false,
          "internalType": "uint256",
          "name": "amount",
          "type": "uint256"
        }
      ],
      "name": "CreditRepaid",
      "type": "event"
    },
    {
      "anonymous": false,
      "inputs": [
        {
          "indexed": true,
          "internalType": "address",
          "name": "previousOwner",
          "type": "address"
        },
        {
          "indexed": true,
          "internalType": "address",
          "name": "newOwner",
          "type": "address"
        }
      ],
      "name": "OwnershipTransferred",
      "type": "event"
    },
    {
      "anonymous": false,
      "inputs": [
        {
          "indexed": true,
          "internalType": "uint256",
          "name": "cardId",
          "type": "uint256"
        },
        {
          "indexed": false,
          "internalType": "uint256",
          "name": "amount",
          "type": "uint256"
        },
        {
          "indexed": false,
          "internalType": "bool",
          "name": "isOnTime",
          "type": "bool"
        },
        {
          "indexed": false,
          "internalType": "uint256",
          "name": "newBalance",
          "type": "uint256"
        }
      ],
      "name": "RepaymentMade",
      "type": "event"
    },
    {
      "anonymous": false,
      "inputs": [
        {
          "indexed": true,
          "internalType": "uint256",
          "name": "cardId",
          "type": "uint256"
        },
        {
          "indexed": false,
          "internalType": "uint256",
          "name": "amount",
          "type": "uint256"
        },
        {
          "indexed": true,
          "internalType": "address",
          "name": "merchant",
          "type": "address"
        },
        {
          "indexed": false,
          "internalType": "uint256",
          "name": "timestamp",
          "type": "uint256"
        }
      ],
      "name": "SpendTransaction",
      "type": "event"
    },
    {
      "anonymous": false,
      "inputs": [
        {
          "indexed": true,
          "internalType": "address",
          "name": "from",
          "type": "address"
        },
        {
          "indexed": true,
          "internalType": "address",
          "name": "to",
          "type": "address"
        },
        {
          "indexed": true,
          "internalType": "uint256",
          "name": "tokenId",
          "type": "uint256"
        }
      ],
      "name": "Transfer",
      "type": "event"
    },
    {
      "anonymous": false,
      "inputs": [
        {
          "indexed": true,
          "internalType": "address",
          "name": "depositor",
          "type": "address"
        },
        {
          "indexed": false,
          "internalType": "uint256",
          "name": "amount",
          "type": "uint256"
        },
        {
          "indexed": false,
          "internalType": "uint256",
          "name": "newBalance",
          "type": "uint256"
        }
      ],
      "name": "TreasuryDeposit",
      "type": "event"
    },
    {
      "anonymous": false,
      "inputs": [
        {
          "indexed": true,
          "internalType": "address",
          "name": "withdrawer",
          "type": "address"
        },
        {
          "indexed": false,
          "internalType": "uint256",
          "name": "amount",
          "type": "uint256"
        },
        {
          "indexed": false,
          "internalType": "uint256",
          "name": "newBalance",
          "type": "uint256"
        }
      ],
      "name": "TreasuryWithdraw",
      "type": "event"
    },
    {
      "anonymous": false,
      "inputs": [
        {
          "indexed": true,
          "internalType": "address",
          "name": "user",
          "type": "address"
        },
        {
          "indexed": false,
          "internalType": "string",
          "name": "reason",
          "type": "string"
        }
      ],
      "name": "UserBlacklisted",
      "type": "event"
    },
    {
      "inputs": [],
      "name": "DEFAULT_PERIOD",
      "outputs": [
        {
          "internalType": "uint256",
          "name": "",
          "type": "uint256"
        }
      ],
      "stateMutability": "view",
      "type": "function"
    },
    {
      "inputs": [],
      "name": "EMI_PERIOD",
      "outputs": [
        {
          "internalType": "uint256",
          "name": "",
          "type": "uint256"
        }
      ],
      "stateMutability": "view",
      "type": "function"
    },
    {
      "inputs": [],
      "name": "INTEREST_RATE_BASIS_POINTS",
      "outputs": [
        {
          "internalType": "uint256",
          "name": "",
          "type": "uint256"
        }
      ],
      "stateMutability": "view",
      "type": "function"
    },
    {
      "inputs": [],
      "name": "SPENDING_MULTIPLIER",
      "outputs": [
        {
          "internalType": "uint256",
          "name": "",
          "type": "uint256"
        }
      ],
      "stateMutability": "view",
      "type": "function"
    },
    {
      "inputs": [
        {
          "internalType": "address",
          "name": "to",
          "type": "address"
        },
        {
          "internalType": "uint256",
          "name": "tokenId",
          "type": "uint256"
        }
      ],
      "name": "approve",
      "outputs": [],
      "stateMutability": "nonpayable",
      "type": "function"
    },
    {
      "inputs": [
        {
          "internalType": "address",
          "name": "owner",
          "type": "address"
        }
      ],
      "name": "balanceOf",
      "outputs": [
        {
          "internalType": "uint256",
          "name": "",
          "type": "uint256"
        }
      ],
      "stateMutability": "view",
      "type": "function"
    },
    {
      "inputs": [
        {
          "internalType": "address",
          "name": "_user",
          "type": "address"
        },
        {
          "internalType": "string",
          "name": "_reason",
          "type": "string"
        }
      ],
      "name": "blacklistUser",
      "outputs": [],
      "stateMutability": "nonpayable",
      "type": "function"
    },
    {
      "inputs": [
        {
          "internalType": "address",
          "name": "",
          "type": "address"
        }
      ],
      "name": "blacklistedUsers",
      "outputs": [
        {
          "internalType": "bool",
          "name": "",
          "type": "bool"
        }
      ],
      "stateMutability": "view",
      "type": "function"
    },
    {
      "inputs": [
        {
          "internalType": "uint256",
          "name": "_cardId",
          "type": "uint256"
        },
        {
          "internalType": "string",
          "name": "_reason",
          "type": "string"
        }
      ],
      "name": "burnCard",
      "outputs": [],
      "stateMutability": "nonpayable",
      "type": "function"
    },
    {
      "inputs": [
        {
          "internalType": "uint256",
          "name": "principal",
          "type": "uint256"
        },
        {
          "internalType": "uint256",
          "name": "rateInBasisPoints",
          "type": "uint256"
        },
        {
          "internalType": "uint256",
          "name": "months",
          "type": "uint256"
        }
      ],
      "name": "calculateEMI",
      "outputs": [
        {
          "internalType": "uint256",
          "name": "",
          "type": "uint256"
        }
      ],
      "stateMutability": "pure",
      "type": "function"
    },
    {
      "inputs": [
        {
          "internalType": "uint256",
          "name": "_tier",
          "type": "uint256"
        },
        {
          "internalType": "uint256",
          "name": "_depositAmount",
          "type": "uint256"
        }
      ],
      "name": "canSupportNewUser",
      "outputs": [
        {
          "internalType": "bool",
          "name": "",
          "type": "bool"
        },
        {
          "internalType": "uint256",
          "name": "",
          "type": "uint256"
        }
      ],
      "stateMutability": "view",
      "type": "function"
    },
    {
      "inputs": [
        {
          "internalType": "uint256",
          "name": "",
          "type": "uint256"
        }
      ],
      "name": "cards",
      "outputs": [
        {
          "internalType": "uint256",
          "name": "depositAmount",
          "type": "uint256"
        },
        {
          "internalType": "uint256",
          "name": "spendingLimit",
          "type": "uint256"
        },
        {
          "internalType": "uint256",
          "name": "remainingBalance",
          "type": "uint256"
        },
        {
          "internalType": "uint256",
          "name": "validityPeriod",
          "type": "uint256"
        },
        {
          "internalType": "uint256",
          "name": "tier",
          "type": "uint256"
        },
        {
          "internalType": "uint256",
          "name": "mintTimestamp",
          "type": "uint256"
        },
        {
          "internalType": "bool",
          "name": "isActive",
          "type": "bool"
        },
        {
          "internalType": "bool",
          "name": "isBlacklisted",
          "type": "bool"
        }
      ],
      "stateMutability": "view",
      "type": "function"
    },
    {
      "inputs": [],
      "name": "creditScoreContract",
      "outputs": [
        {
          "internalType": "contract IClenCreditScore",
          "name": "",
          "type": "address"
        }
      ],
      "stateMutability": "view",
      "type": "function"
    },
    {
      "inputs": [],
      "name": "depositToTreasury",
      "outputs": [],
      "stateMutability": "payable",
      "type": "function"
    },
    {
      "inputs": [],
      "name": "emergencyWithdraw",
      "outputs": [],
      "stateMutability": "nonpayable",
      "type": "function"
    },
    {
      "inputs": [
        {
          "internalType": "uint256",
          "name": "tokenId",
          "type": "uint256"
        }
      ],
      "name": "getApproved",
      "outputs": [
        {
          "internalType": "address",
          "name": "",
          "type": "address"
        }
      ],
      "stateMutability": "view",
      "type": "function"
    },
    {
      "inputs": [],
      "name": "getAvailableTreasuryForWithdrawal",
      "outputs": [
        {
          "internalType": "uint256",
          "name": "",
          "type": "uint256"
        }
      ],
      "stateMutability": "view",
      "type": "function"
    },
    {
      "inputs": [
        {
          "internalType": "uint256",
          "name": "_cardId",
          "type": "uint256"
        }
      ],
      "name": "getCard",
      "outputs": [
        {
          "components": [
            {
              "internalType": "uint256",
              "name": "depositAmount",
              "type": "uint256"
            },
            {
              "internalType": "uint256",
              "name": "spendingLimit",
              "type": "uint256"
            },
            {
              "internalType": "uint256",
              "name": "remainingBalance",
              "type": "uint256"
            },
            {
              "internalType": "uint256",
              "name": "validityPeriod",
              "type": "uint256"
            },
            {
              "internalType": "uint256",
              "name": "tier",
              "type": "uint256"
            },
            {
              "internalType": "uint256",
              "name": "mintTimestamp",
              "type": "uint256"
            },
            {
              "internalType": "bool",
              "name": "isActive",
              "type": "bool"
            },
            {
              "internalType": "bool",
              "name": "isBlacklisted",
              "type": "bool"
            }
          ],
          "internalType": "struct ClenNFTCard.Card",
          "name": "",
          "type": "tuple"
        }
      ],
      "stateMutability": "view",
      "type": "function"
    },
    {
      "inputs": [],
      "name": "getMaxCreditIssuable",
      "outputs": [
        {
          "internalType": "uint256",
          "name": "",
          "type": "uint256"
        }
      ],
      "stateMutability": "view",
      "type": "function"
    },
    {
      "inputs": [
        {
          "internalType": "uint256",
          "name": "_cardId",
          "type": "uint256"
        }
      ],
      "name": "getRepaymentSchedule",
      "outputs": [
        {
          "components": [
            {
              "internalType": "uint256",
              "name": "totalDue",
              "type": "uint256"
            },
            {
              "internalType": "uint256",
              "name": "monthlyEMI",
              "type": "uint256"
            },
            {
              "internalType": "uint256",
              "name": "nextDueDate",
              "type": "uint256"
            },
            {
              "internalType": "uint256",
              "name": "interestRate",
              "type": "uint256"
            },
            {
              "internalType": "uint256",
              "name": "missedPayments",
              "type": "uint256"
            },
            {
              "internalType": "bool",
              "name": "isFullyPaid",
              "type": "bool"
            }
          ],
          "internalType": "struct ClenNFTCard.RepaymentSchedule",
          "name": "",
          "type": "tuple"
        }
      ],
      "stateMutability": "view",
      "type": "function"
    },
    {
      "inputs": [],
      "name": "getTreasuryHealth",
      "outputs": [
        {
          "internalType": "uint256",
          "name": "balance",
          "type": "uint256"
        },
        {
          "internalType": "uint256",
          "name": "creditIssued",
          "type": "uint256"
        },
        {
          "internalType": "uint256",
          "name": "availableCredit",
          "type": "uint256"
        },
        {
          "internalType": "uint256",
          "name": "healthRatio",
          "type": "uint256"
        }
      ],
      "stateMutability": "view",
      "type": "function"
    },
    {
      "inputs": [],
      "name": "getTreasuryStatus",
      "outputs": [
        {
          "internalType": "uint256",
          "name": "balance",
          "type": "uint256"
        },
        {
          "internalType": "uint256",
          "name": "creditIssued",
          "type": "uint256"
        },
        {
          "internalType": "uint256",
          "name": "maxCreditIssuable",
          "type": "uint256"
        },
        {
          "internalType": "uint256",
          "name": "utilizationRate",
          "type": "uint256"
        }
      ],
      "stateMutability": "view",
      "type": "function"
    },
    {
      "inputs": [
        {
          "internalType": "address",
          "name": "_user",
          "type": "address"
        }
      ],
      "name": "getUserCards",
      "outputs": [
        {
          "internalType": "uint256[]",
          "name": "",
          "type": "uint256[]"
        }
      ],
      "stateMutability": "view",
      "type": "function"
    },
    {
      "inputs": [
        {
          "internalType": "uint256",
          "name": "_cardId",
          "type": "uint256"
        }
      ],
      "name": "handleCardExpiry",
      "outputs": [],
      "stateMutability": "nonpayable",
      "type": "function"
    },
    {
      "inputs": [
        {
          "internalType": "address",
          "name": "owner",
          "type": "address"
        },
        {
          "internalType": "address",
          "name": "operator",
          "type": "address"
        }
      ],
      "name": "isApprovedForAll",
      "outputs": [
        {
          "internalType": "bool",
          "name": "",
          "type": "bool"
        }
      ],
      "stateMutability": "view",
      "type": "function"
    },
    {
      "inputs": [
        {
          "internalType": "uint256",
          "name": "_cardId",
          "type": "uint256"
        }
      ],
      "name": "isCardExpired",
      "outputs": [
        {
          "internalType": "bool",
          "name": "",
          "type": "bool"
        }
      ],
      "stateMutability": "view",
      "type": "function"
    },
    {
      "inputs": [],
      "name": "isTreasuryHealthy",
      "outputs": [
        {
          "internalType": "bool",
          "name": "",
          "type": "bool"
        }
      ],
      "stateMutability": "view",
      "type": "function"
    },
    {
      "inputs": [
        {
          "internalType": "uint256",
          "name": "_cardId",
          "type": "uint256"
        },
        {
          "internalType": "uint256",
          "name": "_amount",
          "type": "uint256"
        }
      ],
      "name": "makeRepayment",
      "outputs": [],
      "stateMutability": "payable",
      "type": "function"
    },
    {
      "inputs": [],
      "name": "maxCreditRatio",
      "outputs": [
        {
          "internalType": "uint256",
          "name": "",
          "type": "uint256"
        }
      ],
      "stateMutability": "view",
      "type": "function"
    },
    {
      "inputs": [],
      "name": "minimumTreasuryReserve",
      "outputs": [
        {
          "internalType": "uint256",
          "name": "",
          "type": "uint256"
        }
      ],
      "stateMutability": "view",
      "type": "function"
    },
    {
      "inputs": [
        {
          "internalType": "uint256",
          "name": "_tier",
          "type": "uint256"
        }
      ],
      "name": "mintCard",
      "outputs": [],
      "stateMutability": "payable",
      "type": "function"
    },
    {
      "inputs": [],
      "name": "name",
      "outputs": [
        {
          "internalType": "string",
          "name": "",
          "type": "string"
        }
      ],
      "stateMutability": "view",
      "type": "function"
    },
    {
      "inputs": [],
      "name": "owner",
      "outputs": [
        {
          "internalType": "address",
          "name": "",
          "type": "address"
        }
      ],
      "stateMutability": "view",
      "type": "function"
    },
    {
      "inputs": [
        {
          "internalType": "uint256",
          "name": "tokenId",
          "type": "uint256"
        }
      ],
      "name": "ownerOf",
      "outputs": [
        {
          "internalType": "address",
          "name": "",
          "type": "address"
        }
      ],
      "stateMutability": "view",
      "type": "function"
    },
    {
      "inputs": [
        {
          "internalType": "address",
          "name": "_user",
          "type": "address"
        }
      ],
      "name": "removeFromBlacklist",
      "outputs": [],
      "stateMutability": "nonpayable",
      "type": "function"
    },
    {
      "inputs": [],
      "name": "renounceOwnership",
      "outputs": [],
      "stateMutability": "nonpayable",
      "type": "function"
    },
    {
      "inputs": [
        {
          "internalType": "uint256",
          "name": "",
          "type": "uint256"
        }
      ],
      "name": "repaymentSchedules",
      "outputs": [
        {
          "internalType": "uint256",
          "name": "totalDue",
          "type": "uint256"
        },
        {
          "internalType": "uint256",
          "name": "monthlyEMI",
          "type": "uint256"
        },
        {
          "internalType": "uint256",
          "name": "nextDueDate",
          "type": "uint256"
        },
        {
          "internalType": "uint256",
          "name": "interestRate",
          "type": "uint256"
        },
        {
          "internalType": "uint256",
          "name": "missedPayments",
          "type": "uint256"
        },
        {
          "internalType": "bool",
          "name": "isFullyPaid",
          "type": "bool"
        }
      ],
      "stateMutability": "view",
      "type": "function"
    },
    {
      "inputs": [],
      "name": "rewardsContract",
      "outputs": [
        {
          "internalType": "contract IClenRewards",
          "name": "",
          "type": "address"
        }
      ],
      "stateMutability": "view",
      "type": "function"
    },
    {
      "inputs": [
        {
          "internalType": "address",
          "name": "from",
          "type": "address"
        },
        {
          "internalType": "address",
          "name": "to",
          "type": "address"
        },
        {
          "internalType": "uint256",
          "name": "tokenId",
          "type": "uint256"
        }
      ],
      "name": "safeTransferFrom",
      "outputs": [],
      "stateMutability": "nonpayable",
      "type": "function"
    },
    {
      "inputs": [
        {
          "internalType": "address",
          "name": "from",
          "type": "address"
        },
        {
          "internalType": "address",
          "name": "to",
          "type": "address"
        },
        {
          "internalType": "uint256",
          "name": "tokenId",
          "type": "uint256"
        },
        {
          "internalType": "bytes",
          "name": "data",
          "type": "bytes"
        }
      ],
      "name": "safeTransferFrom",
      "outputs": [],
      "stateMutability": "nonpayable",
      "type": "function"
    },
    {
      "inputs": [
        {
          "internalType": "address",
          "name": "operator",
          "type": "address"
        },
        {
          "internalType": "bool",
          "name": "approved",
          "type": "bool"
        }
      ],
      "name": "setApprovalForAll",
      "outputs": [],
      "stateMutability": "nonpayable",
      "type": "function"
    },
    {
      "inputs": [
        {
          "internalType": "address",
          "name": "_creditScoreContract",
          "type": "address"
        }
      ],
      "name": "setCreditScoreContract",
      "outputs": [],
      "stateMutability": "nonpayable",
      "type": "function"
    },
    {
      "inputs": [
        {
          "internalType": "address",
          "name": "_rewardsContract",
          "type": "address"
        }
      ],
      "name": "setRewardsContract",
      "outputs": [],
      "stateMutability": "nonpayable",
      "type": "function"
    },
    {
      "inputs": [
        {
          "internalType": "uint256",
          "name": "_cardId",
          "type": "uint256"
        },
        {
          "internalType": "uint256",
          "name": "_amount",
          "type": "uint256"
        },
        {
          "internalType": "address",
          "name": "_merchant",
          "type": "address"
        }
      ],
      "name": "spendFromCard",
      "outputs": [],
      "stateMutability": "nonpayable",
      "type": "function"
    },
    {
      "inputs": [
        {
          "internalType": "bytes4",
          "name": "interfaceId",
          "type": "bytes4"
        }
      ],
      "name": "supportsInterface",
      "outputs": [
        {
          "internalType": "bool",
          "name": "",
          "type": "bool"
        }
      ],
      "stateMutability": "view",
      "type": "function"
    },
    {
      "inputs": [],
      "name": "symbol",
      "outputs": [
        {
          "internalType": "string",
          "name": "",
          "type": "string"
        }
      ],
      "stateMutability": "view",
      "type": "function"
    },
    {
      "inputs": [
        {
          "internalType": "uint256",
          "name": "",
          "type": "uint256"
        }
      ],
      "name": "tierMaxDeposit",
      "outputs": [
        {
          "internalType": "uint256",
          "name": "",
          "type": "uint256"
        }
      ],
      "stateMutability": "view",
      "type": "function"
    },
    {
      "inputs": [
        {
          "internalType": "uint256",
          "name": "",
          "type": "uint256"
        }
      ],
      "name": "tierMinDeposit",
      "outputs": [
        {
          "internalType": "uint256",
          "name": "",
          "type": "uint256"
        }
      ],
      "stateMutability": "view",
      "type": "function"
    },
    {
      "inputs": [
        {
          "internalType": "uint256",
          "name": "",
          "type": "uint256"
        }
      ],
      "name": "tierValidityPeriods",
      "outputs": [
        {
          "internalType": "uint256",
          "name": "",
          "type": "uint256"
        }
      ],
      "stateMutability": "view",
      "type": "function"
    },
    {
      "inputs": [
        {
          "internalType": "uint256",
          "name": "tokenId",
          "type": "uint256"
        }
      ],
      "name": "tokenURI",
      "outputs": [
        {
          "internalType": "string",
          "name": "",
          "type": "string"
        }
      ],
      "stateMutability": "view",
      "type": "function"
    },
    {
      "inputs": [],
      "name": "totalCreditIssued",
      "outputs": [
        {
          "internalType": "uint256",
          "name": "",
          "type": "uint256"
        }
      ],
      "stateMutability": "view",
      "type": "function"
    },
    {
      "inputs": [
        {
          "internalType": "address",
          "name": "from",
          "type": "address"
        },
        {
          "internalType": "address",
          "name": "to",
          "type": "address"
        },
        {
          "internalType": "uint256",
          "name": "tokenId",
          "type": "uint256"
        }
      ],
      "name": "transferFrom",
      "outputs": [],
      "stateMutability": "nonpayable",
      "type": "function"
    },
    {
      "inputs": [
        {
          "internalType": "address",
          "name": "newOwner",
          "type": "address"
        }
      ],
      "name": "transferOwnership",
      "outputs": [],
      "stateMutability": "nonpayable",
      "type": "function"
    },
    {
      "inputs": [],
      "name": "treasuryBalance",
      "outputs": [
        {
          "internalType": "uint256",
          "name": "",
          "type": "uint256"
        }
      ],
      "stateMutability": "view",
      "type": "function"
    },
    {
      "inputs": [],
      "name": "treasuryInitialized",
      "outputs": [
        {
          "internalType": "bool",
          "name": "",
          "type": "bool"
        }
      ],
      "stateMutability": "view",
      "type": "function"
    },
    {
      "inputs": [
        {
          "internalType": "uint256",
          "name": "_tier",
          "type": "uint256"
        },
        {
          "internalType": "uint256",
          "name": "_validityPeriod",
          "type": "uint256"
        },
        {
          "internalType": "uint256",
          "name": "_minDeposit",
          "type": "uint256"
        },
        {
          "internalType": "uint256",
          "name": "_maxDeposit",
          "type": "uint256"
        }
      ],
      "name": "updateTierConfig",
      "outputs": [],
      "stateMutability": "nonpayable",
      "type": "function"
    },
    {
      "inputs": [
        {
          "internalType": "address",
          "name": "",
          "type": "address"
        }
      ],
      "name": "userCardCount",
      "outputs": [
        {
          "internalType": "uint256",
          "name": "",
          "type": "uint256"
        }
      ],
      "stateMutability": "view",
      "type": "function"
    },
    {
      "inputs": [
        {
          "internalType": "address",
          "name": "",
          "type": "address"
        },
        {
          "internalType": "uint256",
          "name": "",
          "type": "uint256"
        }
      ],
      "name": "userCards",
      "outputs": [
        {
          "internalType": "uint256",
          "name": "",
          "type": "uint256"
        }
      ],
      "stateMutability": "view",
      "type": "function"
    },
    {
      "inputs": [
        {
          "internalType": "uint256",
          "name": "_amount",
          "type": "uint256"
        }
      ],
      "name": "withdrawFromTreasury",
      "outputs": [],
      "stateMutability": "nonpayable",
      "type": "function"
    }
  ],
  "bytecode": "0x60c8600c55600d805460ff19169055600b60809081526a10db195b93919510d85c9960aa1b60a052610100604052600460c09081526321a622a760e11b60e05260006200004d8382620003c3565b5060016200005c8282620003c3565b5050506200007962000073620002c860201b60201c565b620002cc565b6001600755678ac7230489e80000341015620000ec5760405162461bcd60e51b815260206004820152602860248201527f496e697469616c207472656173757279206d757374206265206174206c6561736044820152673a1018981026a7a760c11b606482015260840160405180910390fd5b346009819055671bc16d674ec80000600b55600d805460ff1916600117905562278d007fb6c61a840592cc84133e4b25bd509abf4659307c57b160799b38490a5aa48f2c55670de0b6b3a76400007f27739e4bb5e6f8b5e4b57a047dca8767cc9b982a011081e086cbb0dfa9de818d55678ac7230489e800007f4c4dc693d7db52f85fe052106f4b4b920e78e8ef37dee82878a60ab8585faf49819055624f1a007fa1930aa930426c54c34daad2b9ada7c5d0ef0c96078a3c5bb79f6fa6602c4a7a557f07d4ff730d9753101d832555708a37d38c2c45fce8cacaefc99f06074e93fe0b556802b5e3af16b18800007fcaff291fe014adc6b72a172705750b4cabe8f8667664d2924a166caab288564881905560036000526276a7007f63d87a887046e0430be80fdeb014107d7198c879cbf2cddf39a6df195c86cb38557fb3a65e8276bd33b3e4f7d6081ebd9899187264822358758dca2e2bc37b2a9c2755601660205268056bc75e2d631000007ff06d282f967055cb1eee17e04aa005b9682a620f4bbcfaee55ba78607a3d87ae5560405133917fb68e8301ad7468a283824a6592dd711e09b95af56caa96757e636a4a8588bf2991620002ba91908190918252602082015260400190565b60405180910390a26200048f565b3390565b600680546001600160a01b038381166001600160a01b0319831681179093556040519116919082907f8be0079c531659141344cd1fd0a4f28419497f9722a3daafe3b4186f6b6457e090600090a35050565b634e487b7160e01b600052604160045260246000fd5b600181811c908216806200034957607f821691505b6020821081036200036a57634e487b7160e01b600052602260045260246000fd5b50919050565b601f821115620003be57600081815260208120601f850160051c81016020861015620003995750805b601f850160051c820191505b81811015620003ba57828155600101620003a5565b5050505b505050565b81516001600160401b03811115620003df57620003df6200031e565b620003f781620003f0845462000334565b8462000370565b602080601f8311600181146200042f5760008415620004165750858301515b600019600386901b1c1916600185901b178555620003ba565b600085815260208120601f198616915b8281101562000460578886015182559484019460019091019084016200043f565b50858210156200047f5787850151600019600388901b60f8161c191681555b5050505050600190811b01905550565b613abe806200049f6000396000f3fe60806040526004361061038c5760003560e01c80638da5cb5b116101dc578063c64e9c6f11610102578063dfa0dfa5116100a0578063f06c32601161006f578063f06c326014610c02578063f1cc2dea14610c19578063f2fde38b14610c33578063f4f2dfab14610c5357600080fd5b8063dfa0dfa514610b8d578063e1f7c2c914610bad578063e985e9c514610bcd578063ed3956af14610bed57600080fd5b8063d369a2c6116100dc578063d369a2c614610b2e578063d498e6b014610b4e578063db2e21bc14610b63578063df1b32b314610b7857600080fd5b8063c64e9c6f14610ab4578063c87b56dd14610ae1578063d33a0e3914610b0157600080fd5b8063b1485b331161017a578063b88d4fde11610149578063b88d4fde14610a3c578063bc6f5fe414610a5c578063bed774be14610a89578063c33336db14610a9e57600080fd5b8063b1485b33146109de578063b364c483146109f1578063b4dc940514610a06578063b5aca57014610a2657600080fd5b806395d89b41116101b657806395d89b411461094557806398d2f8ae1461095a578063a22cb46514610991578063a3008b84146109b157600080fd5b80638da5cb5b146107ff5780638dc107681461081d5780639188d312146108c057600080fd5b8063537df3b6116102c157806370a082311161025f578063780e78931161022e578063780e78931461072d578063858f19f71461074457806388d9f40d146107b25780638d58a33b146107df57600080fd5b806370a08231146106d057806370ad60f0146106f0578063715018a614610710578063718b20581461072557600080fd5b80636352211e1161029b5780636352211e14610645578063635556241461066557806366bcc1a3146106855780636b8ce514146106ba57600080fd5b8063537df3b61461059057806354a99824146105b057806360b47a501461063257600080fd5b806319398a9a1161032e57806323b872dd1161030857806323b872dd1461051a578063313dab201461053a57806342842e0e146105505780634d0970c61461057057600080fd5b806319398a9a146104b5578063220cce97146104ca57806322c0aec7146104ea57600080fd5b8063081812fc1161036a578063081812fc14610425578063095ea7b3146104455780630feff7e514610467578063172b6b621461048757600080fd5b806301ffc9a71461039157806303a42b6f146103c657806306fdde0314610403575b600080fd5b34801561039d57600080fd5b506103b16103ac3660046133b2565b610c73565b60405190151581526020015b60405180910390f35b3480156103d257600080fd5b50600d546103eb9061010090046001600160a01b031681565b6040516001600160a01b0390911681526020016103bd565b34801561040f57600080fd5b50610418610cc5565b6040516103bd919061341f565b34801561043157600080fd5b506103eb610440366004613432565b610d57565b34801561045157600080fd5b50610465610460366004613467565b610d7e565b005b34801561047357600080fd5b50610465610482366004613432565b610e98565b34801561049357600080fd5b506104a76104a2366004613467565b611082565b6040519081526020016103bd565b3480156104c157600080fd5b506104a7609681565b3480156104d657600080fd5b50600e546103eb906001600160a01b031681565b3480156104f657600080fd5b506103b1610505366004613491565b60116020526000908152604090205460ff1681565b34801561052657600080fd5b506104656105353660046134ac565b6110b3565b34801561054657600080fd5b506104a760095481565b34801561055c57600080fd5b5061046561056b3660046134ac565b6110e4565b34801561057c57600080fd5b5061046561058b366004613594565b6110ff565b34801561059c57600080fd5b506104656105ab366004613491565b611115565b3480156105bc57600080fd5b506106036105cb366004613432565b601060205260009081526040902080546001820154600283015460038401546004850154600590950154939492939192909160ff1686565b6040805196875260208701959095529385019290925260608401526080830152151560a082015260c0016103bd565b610465610640366004613432565b61113e565b34801561065157600080fd5b506103eb610660366004613432565b61154b565b34801561067157600080fd5b50610465610680366004613432565b6115ab565b34801561069157600080fd5b5061069a61170a565b6040805194855260208501939093529183015260608201526080016103bd565b3480156106c657600080fd5b506104a7600b5481565b3480156106dc57600080fd5b506104a76106eb366004613491565b61174f565b3480156106fc57600080fd5b5061046561070b3660046135e2565b6117d5565b34801561071c57600080fd5b50610465611854565b610465611868565b34801561073957600080fd5b506104a76276a70081565b34801561075057600080fd5b5061076461075f366004613432565b61192b565b6040516103bd9190600060c082019050825182526020830151602083015260408301516040830152606083015160608301526080830151608083015260a0830151151560a083015292915050565b3480156107be57600080fd5b506107d26107cd366004613491565b6119c4565b6040516103bd9190613614565b3480156107eb57600080fd5b506104656107fa366004613658565b611a30565b34801561080b57600080fd5b506006546001600160a01b03166103eb565b34801561082957600080fd5b50610881610838366004613432565b600f602052600090815260409020805460018201546002830154600384015460048501546005860154600690960154949593949293919290919060ff8082169161010090041688565b604080519889526020890197909752958701949094526060860192909252608085015260a0840152151560c0830152151560e0820152610100016103bd565b3480156108cc57600080fd5b506108e06108db366004613432565b611b0d565b6040516103bd9190600061010082019050825182526020830151602083015260408301516040830152606083015160608301526080830151608083015260a083015160a083015260c0830151151560c083015260e0830151151560e083015292915050565b34801561095157600080fd5b50610418611bf3565b34801561096657600080fd5b5061097a610975366004613689565b611c02565b6040805192151583526020830191909152016103bd565b34801561099d57600080fd5b506104656109ac3660046136ab565b611ce2565b3480156109bd57600080fd5b506104a76109cc366004613432565b60146020526000908152604090205481565b6104656109ec366004613689565b611ced565b3480156109fd57600080fd5b506104a7600281565b348015610a1257600080fd5b506104a7610a213660046136e7565b6120b3565b348015610a3257600080fd5b506104a7600a5481565b348015610a4857600080fd5b50610465610a57366004613713565b61211d565b348015610a6857600080fd5b506104a7610a77366004613491565b60136020526000908152604090205481565b348015610a9557600080fd5b506104a7612155565b348015610aaa57600080fd5b506104a7600c5481565b348015610ac057600080fd5b506104a7610acf366004613432565b60156020526000908152604090205481565b348015610aed57600080fd5b50610418610afc366004613432565b6121c0565b348015610b0d57600080fd5b506104a7610b1c366004613432565b60166020526000908152604090205481565b348015610b3a57600080fd5b50610465610b4936600461378f565b612233565b348015610b5a57600080fd5b506104a76126c1565b348015610b6f57600080fd5b506104656126fb565b348015610b8457600080fd5b5061069a61273c565b348015610b9957600080fd5b50610465610ba8366004613491565b61276e565b348015610bb957600080fd5b50610465610bc8366004613491565b612798565b348015610bd957600080fd5b506103b1610be83660046137c4565b6127c8565b348015610bf957600080fd5b506103b16127f6565b348015610c0e57600080fd5b506104a762278d0081565b348015610c2557600080fd5b50600d546103b19060ff1681565b348015610c3f57600080fd5b50610465610c4e366004613491565b61284c565b348015610c5f57600080fd5b506103b1610c6e366004613432565b6128c2565b60006001600160e01b031982166380ac58cd60e01b1480610ca457506001600160e01b03198216635b5e139f60e01b145b80610cbf57506301ffc9a760e01b6001600160e01b03198316145b92915050565b606060008054610cd4906137f7565b80601f0160208091040260200160405190810160405280929190818152602001828054610d00906137f7565b8015610d4d5780601f10610d2257610100808354040283529160200191610d4d565b820191906000526020600020905b815481529060010190602001808311610d3057829003601f168201915b5050505050905090565b6000610d6282612901565b506000908152600460205260409020546001600160a01b031690565b6000610d898261154b565b9050806001600160a01b0316836001600160a01b031603610dfb5760405162461bcd60e51b815260206004820152602160248201527f4552433732313a20617070726f76616c20746f2063757272656e74206f776e656044820152603960f91b60648201526084015b60405180910390fd5b336001600160a01b0382161480610e175750610e1781336127c8565b610e895760405162461bcd60e51b815260206004820152603d60248201527f4552433732313a20617070726f76652063616c6c6572206973206e6f7420746f60448201527f6b656e206f776e6572206f7220617070726f76656420666f7220616c6c0000006064820152608401610df2565b610e938383612951565b505050565b610ea1816129bf565b610ebd5760405162461bcd60e51b8152600401610df290613831565b6000818152600f6020526040902060038101544211610f1e5760405162461bcd60e51b815260206004820152601860248201527f4361726420686173206e6f7420657870697265642079657400000000000000006044820152606401610df2565b600681015460ff16610f725760405162461bcd60e51b815260206004820152601860248201527f4361726420697320616c726561647920696e61637469766500000000000000006044820152606401610df2565b600081600201548260010154610f889190613874565b60068301805460ff191690559050808015611042576000610fac82609660036120b3565b90506040518060c0016040528083815260200182815260200162278d0042610fd49190613887565b8152609660208083019190915260006040808401829052606093840182905289825260108352908190208451815591840151600183015583015160028201559082015160038201556080820151600482015560a0909101516005909101805460ff1916911515919091179055505b837f24ffc82663e9340ef393fe529cc111900bdbe2ffc40fa479277090536157345b8260405161107491815260200190565b60405180910390a250505050565b6012602052816000526040600020818154811061109e57600080fd5b90600052602060002001600091509150505481565b6110bd33826129dc565b6110d95760405162461bcd60e51b8152600401610df29061389a565b610e93838383612a3b565b610e938383836040518060200160405280600081525061211d565b611107612b9f565b6111118282612bf9565b5050565b61111d612b9f565b6001600160a01b03166000908152601160205260409020805460ff19169055565b611146612d35565b3360009081526011602052604090205460ff161561119c5760405162461bcd60e51b8152602060048201526013602482015272155cd95c881a5cc8189b1858dadb1a5cdd1959606a1b6044820152606401610df2565b600181101580156111ae575060038111155b6111e95760405162461bcd60e51b815260206004820152600c60248201526b24b73b30b634b2103a34b2b960a11b6044820152606401610df2565b600081815260156020526040902054341080159061121557506000818152601660205260409020543411155b61125a5760405162461bcd60e51b8152602060048201526016602482015275125b9d985b1a590819195c1bdcda5d08185b5bdd5b9d60521b6044820152606401610df2565b600e5434906000906001600160a01b0316156112e757600e5460405163218d272f60e21b815260048101859052602481018490526001600160a01b03909116906386349cbc90604401602060405180830381865afa1580156112c0573d6000803e3d6000fd5b505050506040513d601f19601f820116820180604052508101906112e491906138e7565b90505b6000816112f5600285613900565b6112ff9190613887565b9050611309612155565b81111561136d5760405162461bcd60e51b815260206004820152602c60248201527f547265617375727920696e73756666696369656e7420666f722074686973206360448201526b1c99591a5d08185b5bdd5b9d60a21b6064820152608401610df2565b826009600082825461137f9190613887565b9250508190555080600a60008282546113989190613887565b90915550506008546113ae600880546001019055565b6113b83382612d8e565b6040518061010001604052808581526020018381526020018381526020016014600088815260200190815260200160002054426113f59190613887565b81526020808201889052426040808401919091526001606080850182905260006080958601819052878152600f855283812087518155878601518185015587850151600282015591870151600383015594860151600482015560a0860151600582015560c08601516006909101805460e09097015115156101000261ff00199215159290921661ffff1990971696909617179094553380845260128352818420805495860181558452828420909401859055928252601390529081208054916114bd83613917565b90915550506040805185815260208101849052829133917f63efb33af2099f32dea9bd68e4c1f5ad48787ab820f3e8b94ee93512514eec00910160405180910390a3604080518281526020810184905233917ff8cddf2eaf16af6f7a9735a8bed50968cabcef91b322eecbde3805d8d8377da4910160405180910390a2505050506115486001600755565b50565b6000818152600260205260408120546001600160a01b031680610cbf5760405162461bcd60e51b8152602060048201526018602482015277115490cdcc8c4e881a5b9d985b1a59081d1bdad95b88125160421b6044820152606401610df2565b6115b3612b9f565b600081116116145760405162461bcd60e51b815260206004820152602860248201527f5769746864726177616c20616d6f756e74206d75737420626520677265617465604482015267072207468616e20360c41b6064820152608401610df2565b600061161e6126c1565b9050808211156116705760405162461bcd60e51b815260206004820152601f60248201527f496e73756666696369656e7420617661696c61626c65207472656173757279006044820152606401610df2565b81600960008282546116829190613874565b90915550506006546040516001600160a01b039091169083156108fc029084906000818181858888f193505050501580156116c1573d6000803e3d6000fd5b5060095460405133917f9134665a0d95d8d6af858b05eae0e9fd650ad93e9fa6620f27e35d011a358afb916116fe91868252602082015260400190565b60405180910390a25050565b600954600a5460008061171b612155565b91506000831161172d57612710611747565b82600954606461173d9190613900565b6117479190613930565b905090919293565b60006001600160a01b0382166117b95760405162461bcd60e51b815260206004820152602960248201527f4552433732313a2061646472657373207a65726f206973206e6f7420612076616044820152683634b21037bbb732b960b91b6064820152608401610df2565b506001600160a01b031660009081526003602052604090205490565b6117dd612b9f565b600184101580156117ef575060038411155b61182a5760405162461bcd60e51b815260206004820152600c60248201526b24b73b30b634b2103a34b2b960a11b6044820152606401610df2565b60009384526014602090815260408086209490945560158152838520929092556016909152912055565b61185c612b9f565b6118666000612da8565b565b611870612b9f565b600034116118ce5760405162461bcd60e51b815260206004820152602560248201527f4465706f73697420616d6f756e74206d75737420626520677265617465722074604482015264068616e20360dc1b6064820152608401610df2565b34600960008282546118e09190613887565b909155505060095460405133917fb68e8301ad7468a283824a6592dd711e09b95af56caa96757e636a4a8588bf299161192191348252602082015260400190565b60405180910390a2565b6119666040518060c0016040528060008152602001600081526020016000815260200160008152602001600081526020016000151581525090565b50600090815260106020908152604091829020825160c08101845281548152600182015492810192909252600281015492820192909252600382015460608201526004820154608082015260059091015460ff16151560a082015290565b6001600160a01b038116600090815260126020908152604091829020805483518184028101840190945280845260609392830182828015611a2457602002820191906000526020600020905b815481526020019060010190808311611a10575b50505050509050919050565b611a38612b9f565b611a41826129bf565b611a5d5760405162461bcd60e51b8152600401610df290613831565b611a6682612dfa565b6000828152600f60209081526040808320838155600180820185905560028083018690556003808401879055600480850188905560058086018990556006909501805461ffff1916905560109096528487208781559283018790559082018690558101859055928301939093559101805460ff191690555182907fd7735c7e5ad2b9488e17982007eb5c97e1cdf1d16bd115c23032a452ceda6d61906116fe90849061341f565b611b596040518061010001604052806000815260200160008152602001600081526020016000815260200160008152602001600081526020016000151581526020016000151581525090565b611b62826129bf565b611b7e5760405162461bcd60e51b8152600401610df290613831565b506000908152600f602090815260409182902082516101008082018552825482526001830154938201939093526002820154938101939093526003810154606084015260048101546080840152600581015460a08401526006015460ff808216151560c085015291900416151560e082015290565b606060018054610cd4906137f7565b600d54600090819060ff16611c1c57506000905080611cdb565b600e546000906001600160a01b0316611c36576000611caa565b600e5460405163218d272f60e21b815260048101879052602481018690526001600160a01b03909116906386349cbc90604401602060405180830381865afa158015611c86573d6000803e3d6000fd5b505050506040513d601f19601f82011682018060405250810190611caa91906138e7565b9050600081611cba600287613900565b611cc49190613887565b90506000611cd0612155565b821115945090925050505b9250929050565b611111338383612e8f565b611cf5612d35565b611cfe826129bf565b611d1a5760405162461bcd60e51b8152600401610df290613831565b33611d248361154b565b6001600160a01b031614611d6b5760405162461bcd60e51b815260206004820152600e60248201526d2737ba1031b0b9321037bbb732b960911b6044820152606401610df2565b803414611dba5760405162461bcd60e51b815260206004820152601860248201527f496e636f7272656374207061796d656e7420616d6f756e7400000000000000006044820152606401610df2565b6000828152601060205260409020600581015460ff1615611e1d5760405162461bcd60e51b815260206004820152601b60248201527f52657061796d656e7420616c726561647920636f6d706c6574656400000000006044820152606401610df2565b60008211611e6d5760405162461bcd60e51b815260206004820152601d60248201527f416d6f756e74206d7573742062652067726561746572207468616e20300000006044820152606401610df2565b600281015442111580611edc57600482018054906000611e8c83613917565b91905055506003826004015410611edc57611edc336040518060400160405280601881526020017f4d756c7469706c65206d6973736564207061796d656e74730000000000000000815250612bf9565b8260096000828254611eee9190613887565b909155505081548310611f71578154600090611f0a9085613874565b6000845560058401805460ff1916600117905590508015611f6b578060096000828254611f379190613874565b9091555050604051339082156108fc029083906000818181858888f19350505050158015611f69573d6000803e3d6000fd5b505b50611f9e565b82826000016000828254611f859190613874565b90915550611f98905062278d0042613887565b60028301555b600d5461010090046001600160a01b03161561202557600d5460405163fb68048760e01b81523360048201528215156024820152604481018590526101009091046001600160a01b03169063fb68048790606401600060405180830381600087803b15801561200c57600080fd5b505af1158015612020573d6000803e3d6000fd5b505050505b81546040805185815283151560208201529081019190915284907f71e6bb313d62ae6be08217b03c53fbfe57001cbda33db7394955b8ca970ea8799060600160405180910390a2604080518581526020810185905233917fb95876ab9ace5646b4685d6b36bc4806a5f9a96bd381783fed703c8f3e6d292c910160405180910390a250506111116001600755565b6000816000036120c4575082612116565b60006120d08386613930565b90506000614e20846120e28789613900565b6120ec9190613900565b6120f69190613930565b905060006121048583613930565b90506121108184613887565b93505050505b9392505050565b61212733836129dc565b6121435760405162461bcd60e51b8152600401610df29061389a565b61214f84848484612f5d565b50505050565b6000600b54600954116121685750600090565b6000600b5460095461217a9190613874565b905060006064600c548361218e9190613900565b6121989190613930565b9050600a5481116121ac5760009250505090565b600a546121b99082613874565b9250505090565b60606121cb82612901565b60006121e260408051602081019091526000815290565b905060008151116122025760405180602001604052806000815250612116565b8061220c84612f90565b60405160200161221d929190613952565b6040516020818303038152906040529392505050565b61223b612d35565b612244836129bf565b6122605760405162461bcd60e51b8152600401610df290613831565b3361226a8461154b565b6001600160a01b0316146122b15760405162461bcd60e51b815260206004820152600e60248201526d2737ba1031b0b9321037bbb732b960911b6044820152606401610df2565b3360009081526011602052604090205460ff16156123075760405162461bcd60e51b8152602060048201526013602482015272155cd95c881a5cc8189b1858dadb1a5cdd1959606a1b6044820152606401610df2565b6000838152600f60205260409020600681015460ff1661235e5760405162461bcd60e51b815260206004820152601260248201527143617264206973206e6f742061637469766560701b6044820152606401610df2565b6006810154610100900460ff16156123ae5760405162461bcd60e51b815260206004820152601360248201527210d85c99081a5cc8189b1858dadb1a5cdd1959606a1b6044820152606401610df2565b80600301544211156123f55760405162461bcd60e51b815260206004820152601060248201526f10d85c99081a185cc8195e1c1a5c995960821b6044820152606401610df2565b82816002015410156124405760405162461bcd60e51b8152602060048201526014602482015273496e73756666696369656e742062616c616e636560601b6044820152606401610df2565b600083116124905760405162461bcd60e51b815260206004820152601d60248201527f416d6f756e74206d7573742062652067726561746572207468616e20300000006044820152606401610df2565b8260095410156124f05760405162461bcd60e51b815260206004820152602560248201527f547265617375727920696e73756666696369656e7420666f72207472616e736160448201526431ba34b7b760d91b6064820152608401610df2565b828160020160008282546125049190613874565b92505081905550826009600082825461251d9190613874565b9250508190555082600a60008282546125369190613874565b90915550506040516001600160a01b0383169084156108fc029085906000818181858888f19350505050158015612571573d6000803e3d6000fd5b50600d5461010090046001600160a01b0316156125fb57600d5460405163041841ed60e41b8152336004820152602481018590526001600160a01b038481166044830152610100909204909116906341841ed090606401600060405180830381600087803b1580156125e257600080fd5b505af11580156125f6573d6000803e3d6000fd5b505050505b600e546001600160a01b03161561267157600e546040516315e4ce3960e21b8152336004820152602481018590526001600160a01b039091169063579338e490604401600060405180830381600087803b15801561265857600080fd5b505af115801561266c573d6000803e3d6000fd5b505050505b604080518481524260208201526001600160a01b0384169186917febdbb35d82cdbfa814821583c2b9778d1e2121d5f59e1a416ab54417ec7d3740910160405180910390a350610e936001600755565b600080600b54600a546126d49190613887565b905080600954116126e757600091505090565b806009546126f59190613874565b91505090565b612703612b9f565b6006546040516001600160a01b03909116904780156108fc02916000818181858888f19350505050158015611548573d6000803e3d6000fd5b600954600a5460008061274d612155565b9150600060095411612760576000611747565b60095461173d846064613900565b612776612b9f565b600e80546001600160a01b0319166001600160a01b0392909216919091179055565b6127a0612b9f565b600d80546001600160a01b0390921661010002610100600160a81b0319909216919091179055565b6001600160a01b03918216600090815260056020908152604080832093909416825291909152205460ff1690565b600d5460009060ff166128095750600090565b600b54600954101561281b5750600090565b6064600c5460095461282d9190613900565b6128379190613930565b600a5411156128465750600090565b50600190565b612854612b9f565b6001600160a01b0381166128b95760405162461bcd60e51b815260206004820152602660248201527f4f776e61626c653a206e6577206f776e657220697320746865207a65726f206160448201526564647265737360d01b6064820152608401610df2565b61154881612da8565b60006128cd826129bf565b6128e95760405162461bcd60e51b8152600401610df290613831565b506000908152600f6020526040902060030154421190565b61290a816129bf565b6115485760405162461bcd60e51b8152602060048201526018602482015277115490cdcc8c4e881a5b9d985b1a59081d1bdad95b88125160421b6044820152606401610df2565b600081815260046020526040902080546001600160a01b0319166001600160a01b03841690811790915581906129868261154b565b6001600160a01b03167f8c5be1e5ebec7d5bd14f71427d1e84f3dd0314c0f7b2291e5b200ac8c7c3b92560405160405180910390a45050565b6000908152600260205260409020546001600160a01b0316151590565b6000806129e88361154b565b9050806001600160a01b0316846001600160a01b03161480612a0f5750612a0f81856127c8565b80612a335750836001600160a01b0316612a2884610d57565b6001600160a01b0316145b949350505050565b826001600160a01b0316612a4e8261154b565b6001600160a01b031614612a745760405162461bcd60e51b8152600401610df290613981565b6001600160a01b038216612ad65760405162461bcd60e51b8152602060048201526024808201527f4552433732313a207472616e7366657220746f20746865207a65726f206164646044820152637265737360e01b6064820152608401610df2565b826001600160a01b0316612ae98261154b565b6001600160a01b031614612b0f5760405162461bcd60e51b8152600401610df290613981565b600081815260046020908152604080832080546001600160a01b03199081169091556001600160a01b0387811680865260038552838620805460001901905590871680865283862080546001019055868652600290945282852080549092168417909155905184937fddf252ad1be2c89b69c2b068fc378daa952ba7f163c4a11628f55a4df523b3ef91a4505050565b6006546001600160a01b031633146118665760405162461bcd60e51b815260206004820181905260248201527f4f776e61626c653a2063616c6c6572206973206e6f7420746865206f776e65726044820152606401610df2565b6001600160a01b0382166000908152601160209081526040808320805460ff191660011790556012825280832080548251818502810185019093528083529192909190830182828015612c6b57602002820191906000526020600020905b815481526020019060010190808311612c57575b5050505050905060005b8151811015612cee576000828281518110612c9257612c926139c6565b6020908102919091018101516000818152600f90925260409091206006015490915060ff1615612cdb576000818152600f60205260409020600601805461ffff19166101001790555b5080612ce681613917565b915050612c75565b50826001600160a01b03167fcc1cf21b75158e751a071cc4770b92cde8bb2bc34f9187eedd0592b874a5566983604051612d28919061341f565b60405180910390a2505050565b600260075403612d875760405162461bcd60e51b815260206004820152601f60248201527f5265656e7472616e637947756172643a207265656e7472616e742063616c6c006044820152606401610df2565b6002600755565b611111828260405180602001604052806000815250613023565b600680546001600160a01b038381166001600160a01b0319831681179093556040519116919082907f8be0079c531659141344cd1fd0a4f28419497f9722a3daafe3b4186f6b6457e090600090a35050565b6000612e058261154b565b9050612e108261154b565b600083815260046020908152604080832080546001600160a01b03199081169091556001600160a01b0385168085526003845282852080546000190190558785526002909352818420805490911690555192935084927fddf252ad1be2c89b69c2b068fc378daa952ba7f163c4a11628f55a4df523b3ef908390a45050565b816001600160a01b0316836001600160a01b031603612ef05760405162461bcd60e51b815260206004820152601960248201527f4552433732313a20617070726f766520746f2063616c6c6572000000000000006044820152606401610df2565b6001600160a01b03838116600081815260056020908152604080832094871680845294825291829020805460ff191686151590811790915591519182527f17307eab39ab6107e8899845ad3d59bd9653f200f220920489ca2b5937696c31910160405180910390a3505050565b612f68848484612a3b565b612f7484848484613056565b61214f5760405162461bcd60e51b8152600401610df2906139dc565b60606000612f9d83613157565b600101905060008167ffffffffffffffff811115612fbd57612fbd6134e8565b6040519080825280601f01601f191660200182016040528015612fe7576020820181803683370190505b5090508181016020015b600019016f181899199a1a9b1b9c1cb0b131b232b360811b600a86061a8153600a8504945084612ff157509392505050565b61302d838361322f565b61303a6000848484613056565b610e935760405162461bcd60e51b8152600401610df2906139dc565b60006001600160a01b0384163b1561314c57604051630a85bd0160e11b81526001600160a01b0385169063150b7a029061309a903390899088908890600401613a2e565b6020604051808303816000875af19250505080156130d5575060408051601f3d908101601f191682019092526130d291810190613a6b565b60015b613132573d808015613103576040519150601f19603f3d011682016040523d82523d6000602084013e613108565b606091505b50805160000361312a5760405162461bcd60e51b8152600401610df2906139dc565b805181602001fd5b6001600160e01b031916630a85bd0160e11b149050612a33565b506001949350505050565b60008072184f03e93ff9f4daa797ed6e38ed64bf6a1f0160401b83106131965772184f03e93ff9f4daa797ed6e38ed64bf6a1f0160401b830492506040015b6d04ee2d6d415b85acef810000000083106131c2576d04ee2d6d415b85acef8100000000830492506020015b662386f26fc1000083106131e057662386f26fc10000830492506010015b6305f5e10083106131f8576305f5e100830492506008015b612710831061320c57612710830492506004015b6064831061321e576064830492506002015b600a8310610cbf5760010192915050565b6001600160a01b0382166132855760405162461bcd60e51b815260206004820181905260248201527f4552433732313a206d696e7420746f20746865207a65726f20616464726573736044820152606401610df2565b61328e816129bf565b156132db5760405162461bcd60e51b815260206004820152601c60248201527f4552433732313a20746f6b656e20616c7265616479206d696e746564000000006044820152606401610df2565b6132e4816129bf565b156133315760405162461bcd60e51b815260206004820152601c60248201527f4552433732313a20746f6b656e20616c7265616479206d696e746564000000006044820152606401610df2565b6001600160a01b038216600081815260036020908152604080832080546001019055848352600290915280822080546001600160a01b0319168417905551839291907fddf252ad1be2c89b69c2b068fc378daa952ba7f163c4a11628f55a4df523b3ef908290a45050565b6001600160e01b03198116811461154857600080fd5b6000602082840312156133c457600080fd5b81356121168161339c565b60005b838110156133ea5781810151838201526020016133d2565b50506000910152565b6000815180845261340b8160208601602086016133cf565b601f01601f19169290920160200192915050565b60208152600061211660208301846133f3565b60006020828403121561344457600080fd5b5035919050565b80356001600160a01b038116811461346257600080fd5b919050565b6000806040838503121561347a57600080fd5b6134838361344b565b946020939093013593505050565b6000602082840312156134a357600080fd5b6121168261344b565b6000806000606084860312156134c157600080fd5b6134ca8461344b565b92506134d86020850161344b565b9150604084013590509250925092565b634e487b7160e01b600052604160045260246000fd5b600067ffffffffffffffff80841115613519576135196134e8565b604051601f8501601f19908116603f01168101908282118183101715613541576135416134e8565b8160405280935085815286868601111561355a57600080fd5b858560208301376000602087830101525050509392505050565b600082601f83011261358557600080fd5b612116838335602085016134fe565b600080604083850312156135a757600080fd5b6135b08361344b565b9150602083013567ffffffffffffffff8111156135cc57600080fd5b6135d885828601613574565b9150509250929050565b600080600080608085870312156135f857600080fd5b5050823594602084013594506040840135936060013592509050565b6020808252825182820181905260009190848201906040850190845b8181101561364c57835183529284019291840191600101613630565b50909695505050505050565b6000806040838503121561366b57600080fd5b82359150602083013567ffffffffffffffff8111156135cc57600080fd5b6000806040838503121561369c57600080fd5b50508035926020909101359150565b600080604083850312156136be57600080fd5b6136c78361344b565b9150602083013580151581146136dc57600080fd5b809150509250929050565b6000806000606084860312156136fc57600080fd5b505081359360208301359350604090920135919050565b6000806000806080858703121561372957600080fd5b6137328561344b565b93506137406020860161344b565b925060408501359150606085013567ffffffffffffffff81111561376357600080fd5b8501601f8101871361377457600080fd5b613783878235602084016134fe565b91505092959194509250565b6000806000606084860312156137a457600080fd5b83359250602084013591506137bb6040850161344b565b90509250925092565b600080604083850312156137d757600080fd5b6137e08361344b565b91506137ee6020840161344b565b90509250929050565b600181811c9082168061380b57607f821691505b60208210810361382b57634e487b7160e01b600052602260045260246000fd5b50919050565b60208082526013908201527210d85c9908191bd95cc81b9bdd08195e1a5cdd606a1b604082015260600190565b634e487b7160e01b600052601160045260246000fd5b81810381811115610cbf57610cbf61385e565b80820180821115610cbf57610cbf61385e565b6020808252602d908201527f4552433732313a2063616c6c6572206973206e6f7420746f6b656e206f776e6560408201526c1c881bdc88185c1c1c9bdd9959609a1b606082015260800190565b6000602082840312156138f957600080fd5b5051919050565b8082028115828204841417610cbf57610cbf61385e565b6000600182016139295761392961385e565b5060010190565b60008261394d57634e487b7160e01b600052601260045260246000fd5b500490565b600083516139648184602088016133cf565b8351908301906139788183602088016133cf565b01949350505050565b60208082526025908201527f4552433732313a207472616e736665722066726f6d20696e636f72726563742060408201526437bbb732b960d91b606082015260800190565b634e487b7160e01b600052603260045260246000fd5b60208082526032908201527f4552433732313a207472616e7366657220746f206e6f6e20455243373231526560408201527131b2b4bb32b91034b6b83632b6b2b73a32b960711b606082015260800190565b6001600160a01b0385811682528416602082015260408101839052608060608201819052600090613a61908301846133f3565b9695505050505050565b600060208284031215613a7d57600080fd5b81516121168161339c56fea26469706673582212205b93a2baf421df2a103caec589fd57ac1387744ddaf025743bb619e19638d24864736f6c63430008130033",
  "linkReferences": {},
  "deployedLinkReferences": {}
}